:020000040800F2
:10000000A815002099020008FF480008F33F0008E7
:10001000FD480008BD1800088556000800000000D3
:10002000000000000000000000000000C7490008B8
:10003000931900080000000001490008C54A0008A3
:10004000B3020008B3020008B3020008B3020008BC
:10005000B3020008B3020008B3020008B3020008AC
:10006000B3020008B3020008B3020008C118000878
:10007000B3020008B3020008B3020008B30200088C
:10008000B302000800000000B3020008B302000839
:10009000B3020008B3020008B3020008B30200086C
:1000A000B3020008B3020008B3020008B30200085C
:1000B000414B0008B3020008B3020008B302000875
:1000C000B3020008B3020008B3020008A9490008FF
:1000D000B30200086D56000879560008B302000804
:1000E000B3020008B3020008B3020008B30200081C
:1000F000B3020008B3020008B302000800000000C9
:1001000000000000B302000800000000B302000875
:10011000B302000800000000B3020008B3020008A8
:10012000D9180008E5180008B3020008B302000857
:10013000B30200080000000000000000B302000845
:10014000B3020008B3020008000000000000000035
:10015000000000000000000000000000000000009F
:10016000000000000000000000000000B3020008D2
:10017000B3020008000000000000000000000000C2
:1001800000000000B30200080000000000000000B2
:10019000000000000000000000000000000000005F
:1001A0000000000000000000B3020008B3020008D5
:1001B000B3020008B3020008B30200080000000008
:1001C00000000000B3020008000000000000000072
:1001D000B3020008B302000800F002F800F04CF887
:1001E0000AA090E8000C82448344AAF10107DA4592
:1001F00001D100F041F8AFF2090EBAE80F0013F098
:10020000010F18BFFB1A43F001031847F8810000E3
:1002100018820000103A24BF78C878C1FAD8520773
:1002200024BF30C830C144BF04680C607047000070
:100230000023002400250026103A28BF78C1FBD8EF
:10024000520728BF30C148BF0B607047662907F0CE
:10025000F781752900F00E81002070471FB507F067
:10026000EAF900F075FD04000020002107F056F9BE
:10027000E0601FBD10B510BD00F06AFE1146FFF72B
:10028000EDFF06F0A1F900F088FE03B4FFF7F2FFDE
:1002900003BC00F08DFE0000094880470948004774
:1002A000FEE7FEE7FEE7FEE7FEE7FEE7FEE7FEE726
:1002B000FEE7FEE704480549054A064B7047000083
:1002C000314B0008D9010008A80F0020A815002014
:1002D000A8110020A811002053EA020C00F0698048
:1002E0002DE9F04B4FF00006002B1FBFB3FA83F54A
:1002F00003FA05F424FA05F65E4012BF1643B2FA7B
:1003000082F502FA05F4C5F120051EBF22FA05FCAC
:1003100044EA0C04203556EA044C4FEA144418BF52
:10032000641C4FF000084FF00009904271EB030C81
:1003300039D3002919BFB1FA81F701FA07F6B0FAEB
:1003400080F700FA07F6C7F120071EBF20FA07FC66
:1003500046EA0C062037B6FBF4FCA7EB0507103F76
:1003600007F01F0BCBF120060CFA0BFB2CFA06F65C
:1003700044BFB3460026202FA4BF5E464FF0000BBB
:100380005BEA060C08BF4FF0010B19EB0B09ABFB46
:10039000027C48EB0608C01B06FB02CC0BFB03CC1F
:1003A00071EB0C01C1E70B46024641464846BDE8E9
:1003B000F08B13B54FF000004FF00001AFF3008059
:1003C000BDE81C40704710B54C1084EA530404D5B6
:1003D0004042C1F1000138BF491E1B4204D55242C0
:1003E000C3F1000338BF5B1EFFF776FF14F0804FA8
:1003F00004D04042C1F1000138BF491E14F0004F43
:1004000004D05242C3F1000338BF5B1E10BD000090
:100410000FB41CB5084B06AA7B44694600900598AA
:1004200000F053FC04460020694600F061FC2046C1
:100430001CBC5DF814FB0000D50800000FB47CB5AF
:100440000C0009AA009001D02044401E084B7B44B8
:1004500069460190089800F038FC05461CB1002060
:10046000694600F045FC28467CBC5DF814FB0000A2
:10047000A90800002DE9F0410646002410687529FE
:10048000314616A510D0AFF30080002802DA4042B2
:1004900013A507E031688A0701D512A502E04907D4
:1004A00004D511A5012401E0AFF3008000210A2248
:1004B00006F1240709E0B0FBF2FCB0FBF2F302FB0B
:1004C0001C00303078541846491C0028F3D12346CC
:1004D0002A463046BDE8F04100F089B9000000002E
:1004E0002D0000002B000000200000002DE9F05F2F
:1004F000894604464FF0000ADFF874B1FB44C0F8A7
:1005000020A02046E1688847002874D0252806D01E
:10051000D4E901219047206A401C2062F1E70026BF
:100520005F462046E16888472028054607DB312DD5
:1005300005D2781910F8200C08B10643F1E7B0078E
:1005400001D526F00406C4F81CA00027C4F818A0A2
:100550002A2D09D0284605F0BEF838B304EB8708E9
:10056000303DC8F8185019E059F8041B204604EB38
:1005700087029161E1688847012F054618D1E0693B
:10058000002820DA26F020061DE0D8F8180000EB3D
:10059000800005EB40003038C8F818002046E168BC
:1005A0008847054605F097F80028EED1012F0AD0BC
:1005B0002E2D08D12046E16888477F1C0546022F72
:1005C00046F02006C4DBA069002803DA404246F06A
:1005D0000106A061F00701D026F010066C2D0BD0AB
:1005E000682D09D04C2D39D06A2D35D0742D35D0D9
:1005F0007A2D33D016E038E0E1682F462046884750
:10060000B842054609D16C2F26D04FF48060E168CE
:10061000064320468847054604E06C2F1AD04FF465
:10062000807006430DB3A5F14100192802D820358A
:1006300046F400664A462946204626604E46FFF7A5
:1006400005FE80B101280BD0F61D26F0070000F151
:10065000080956E74020E4E78020D8E70020D6E7E5
:1006600006F104094DE7284652E7206ABDE8F09FED
:100670001A7E000040EA010310B59B070FD1042A3F
:100680000DD310C808C9121F9C42F8D020BA19BA5D
:10069000884201D9012010BD4FF0FF3010BD1AB1C2
:1006A000D30703D0521C07E0002010BD10F8013B17
:1006B00011F8014B1B1B07D110F8013B11F8014B3E
:1006C0001B1B01D1921EF1D1184610BD10B5431C61
:1006D00002E010F8011B71B18107FAD14FF001322D
:1006E00002C88C1A8C4314EAC211F9D0C01A0A0647
:1006F00003D0C01E10BDC01A10BD0A0401D0801E58
:1007000010BD0902FCD0401E10BD02F0FF0343EAF9
:10071000032242EA024200F0FABA4FF0000200B5AA
:10072000134694469646203922BFA0E80C50A0E814
:100730000C50B1F12001BFF4F7AF090728BFA0E8C2
:100740000C5048BF0CC05DF804EB890028BF40F88E
:10075000042B08BF704748BF20F8022B11F0804FD0
:1007600018BF00F8012B70474FF0013C50F8042BE4
:1007700051F8043B9A4221D1A2EB0C03934313EAB4
:10078000CC1317D150F8042B51F8043B9A4215D1E1
:10079000A2EB0C03934313EACC130BD150F8042BB8
:1007A00051F8043B9A4209D1A2EB0C03934313EA9C
:1007B000CC13DBD04FF00000704700BFD01A01BA55
:1007C000B1FA81F101F0180122FA01F0CB40C1F138
:1007D0002001DBB2C0B2C01A2CFA01F3D11A914346
:1007E00011EAC311E6D170477047704770472DE991
:1007F000F0470D4699469246044600F124080168E8
:10080000880604D5E06921F01001216000E0012094
:10081000A84201DD471B00E00027A1697A1902EB1D
:100820000900081AA0612078C00602D42046AFF360
:100830000080002608E0D4E901211AF8060090475C
:10084000206A401C761C20624E45F4DB2078C006EE
:100850000AD52046AFF3008006E0D4E9012130201C
:100860009047206A401C2062381EA7F10107F4DC83
:1008700007E0D4E9012118F805009047206A401CE0
:100880002062281EA5F10105F3DC2046AFF30080AD
:100890002078000602D50220BDE8F0870120FBE7A2
:1008A00070472DE9FF4F0C461E464FF0FF378BB0C7
:1008B000D2E90001DDF860800A908A46C1F30A554A
:1008C00005B93D46002108464FF00000BAF1000F7F
:1008D00000F4400005DA00EB80004FF4400101EA2B
:1008E00050004FEA9059B9F1010F00DDB9460A985E
:1008F00050EA4A000ED044F61050A5F2FF354543A9
:100900002F14B8F1000F1ED07542291E1EDDC9F14B
:1009100000021CE0B8F1010F4FF0000001D03021BF
:1009200003E0F24305E02154401CB042FBDB3046BB
:100930000022002121540B99C1F80880C1E9002050
:100940000FB0BDE8F08FBD1B6D1CDEE74A4600DA34
:10095000694206A800F086FA06AB93E8070003ABED
:1009600083E8070050460A9900F028FB8DE807004D
:10097000A0F500501F3800900398002D0ADD42F2C8
:100980001F014A460844002303A90390684600F06B
:1009900091FD09E0A0F500504A461F38002303A945
:1009A0000390684600F09BFD8DE807000004000CF2
:1009B00003D04FF0FF30410800E01046B8F1000FBF
:1009C00003D00022009215461EE0751E05D400F0EB
:1009D000C3F9303262556D1EF9D5B3460122084382
:1009E00002D000227F1C04E02078302801D10022B0
:1009F0007F1E002A099784D01DE0112D07DA00F030
:100A0000ABF9303262556D1C50EA0102F5D1084352
:100A100002D00098C8B10EE00021681E05E0235CFA
:100A2000625C63542254401E491C8142F7DBAB4692
:100A3000A81B401E0990002004F80B000B98099A8F
:100A4000C0F80880C0E9002B7AE711264FF00008B3
:100A500057E72DE9F04F88460446D21D22F00701E2
:100A600091B0D1E90001CDE90A0104F00CFE024683
:100A70000B98C00F01D02D2007E02068810701D519
:100A80002B2002E0202101EAC000032A099001D0B6
:100A9000072A05DB03464146204600F0A3F90BE197
:100AA0002078800601D5E06900E00620B8F1650FE6
:100AB000814606D0B8F1660F18D0B8F1670F70D133
:100AC00031E00020B9F1110F009001DB112301E0AA
:100AD00009F101030AAA01A90CA8FFF7E2FEDDE96A
:100AE0000C70002609F10105834647E001204B46C2
:100AF00000904FF000470AAA01A90CA8FFF7D1FE09
:100B0000DDE90DB00C995D46002610B909F1010030
:100B10000D18B9EB050003D4C0F1FF3609F101054A
:100B2000A5EB09002BE0B9F1010F01DA4FF0010943
:100B30000020B9F1110F0090484601DD112300E0BB
:100B400003460AAA01A90CA8FFF7ABFEDDE90C7069
:100B50004D4600268346207800070AD4AB4500DACC
:100B60005D4601A8012D04DD411911F8011C302951
:100B700007D04F4502DA17F1040F04DA012082464C
:100B80000FE06D1EEEE7002F02DCED1B3E4403E09C
:100B9000781CA84200DD7D1CB81B00F1010A4FF053
:100BA00000472078000703D4AA4501DB4FF0FF3A45
:100BB0000021B7F1004F0DF143088DF8431024D008
:100BC00002202B23002F01DA7F422D230A21021E4F
:100BD000A0F1010000DC5FB197FBF1FC97FBF1F2A3
:100BE00001FB1C7C17460CF1300C08F801CDEEE738
:100BF000A8F1010003702188090501D5452100E015
:100C00006521A0F1010800F8011C09980FA9A1EBCA
:100C10000807FF1D00B10120411901EBEA70A1692D
:100C20003844081A401EA0612078C00602D420462D
:100C3000AFF30080099828B1D4E901219047206AD8
:100C4000401C20622078C00622D52046AFF30080E9
:100C50001EE0002E04DBB34502DD01A8805D00E04C
:100C60003020D4E901219047206A401C2062761C84
:100C7000AAF101005FEA000A0AD100F069F8C06831
:100C80000168405CD4E901219047206A401C206241
:100C9000281EA5F10105DCDC07E0D4E9012118F8E4
:100CA000010B9047206A401C2062381EA7F1010703
:100CB000F3DC2046AFF30080032011B041E60000D2
:100CC00001694A1C02610878704700B58FB0CDE910
:100CD00001310021059105497944CDE90310114600
:100CE0006846FFF703FC0FB000BD0000E5FFFFFF03
:100CF0000A6802F8010B0A607047D1E900239A42A2
:100D000002D2531C0B60107070474FF00002042990
:100D1000C0F0128010F0030C3FF401ADCCF1040CD4
:100D2000BCF1020F18BF00F8012BA8BF20F8022B5E
:100D3000A1EB0C01FFF7F3BC5FEAC17C24BF00F814
:100D4000012B00F8012B48BF00F8012B7047000071
:100D500000487047640F002030B5B0F10A024FEA36
:100D6000900E71F100034EEA817EB0EB0E0061EB54
:100D700091014FEA101E4EEA017E10EB0E0041EB8E
:100D800011114FEA102E4EEA016E10EB0E0041EBEE
:100D900011214FEA104E4EEA014E10EB0E0041EBCE
:100DA0001141401841F100014FEAD00040EA417082
:100DB0004FEAD10110EB80054FEA810444EA9074B8
:100DC00044EB01046D1944EB0404521BA3414FF0A2
:100DD000000348BF0A3200D530BD401C41F100017C
:100DE00030BD00002DE9F0411F460446032601688E
:100DF000072A01F4006004DB08B116A505E016A57A
:100E000003E008B115A500E015A521F01000206051
:100E1000A069C01EA0610FB1401EA0612046AFF3C3
:100E200000804FB1D4E9012138469047206A401C28
:100E30002062C01C206206E0206AFAE7D4E90121A2
:100E400015F8010B9047761EF8D22046AFF30080CC
:100E5000BDE8F0814E414E006E616E00494E460085
:100E6000696E66002DE9F047814616468AB035481E
:100E700078440DC88DE80D0032487844801C03ACDE
:100E80000DC884E80D0041F69B300844372190FBE3
:100E9000F1F290FBF1F5A5F1800501FB12041B3C7A
:100EA00002D56442012000E00020DFF898A08046CF
:100EB0000027FA44AAF1BE0A0EE0E0070AD0324643
:100EC000684607EB470101230AEB810100F007FBAD
:100ED0008DE8070064107F1C002CEED1194F7F4471
:100EE000AE3F19E0E80715D007EB04100DF1180A22
:100EF00090E80E008AE80E00C068F04201D198190F
:100F000008903246012306A903A800F0E8FA03ABD3
:100F100083E807006D10641C002DE3D14FF001033E
:100F200032466946B8F1000F03A802D000F0C2FAB9
:100F300001E000F0D4FAC9E90001C9F808200AB0BC
:100F4000BDE8F0873475000000487047440F00206A
:100F50007546FFF7F9FFAE4605006946534620F097
:100F60000700854618B020B5FFF7A4F9BDE820407A
:100F70004FF000064FF000074FF000084FF0000B55
:100F800021F00701AC46ACE8C009ACE8C009ACE808
:100F9000C009ACE8C0098D46704710B50446AFF3F0
:100FA00000802046BDE81040FFF76FB97047000091
:100FB00001491820ABBEFEE7260002005FEA400CA4
:100FC00008BF91F0000F4FEA8C234FEAC12243EA99
:100FD00051514FEA1C5018BF00F5F0404FEA300065
:100FE00018BF41F000415FEA6C5C00F02980BCF161
:100FF000FF3F08BF40F080407047130C06BF12044B
:101000004FF0100C4FF0000C130E04BF12020CF145
:10101000080C130F04BF12010CF1040C930F04BF52
:1010200092000CF1020CD30F04BF52000CF1010C22
:1010300011464FF00002A0F11F00A0EB0C0070471A
:1010400011F0004F08BF704731F000413FF4D5AFB9
:101050000B0C06BF09044FF0100C4FF0000C0B0EE8
:1010600004BF09020CF1080C0B0F04BF09010CF1BD
:10107000040C8B0F04BF89000CF1020CCB0F04BFD2
:1010800049000CF1010CCCF12003A0EB0C0022FA7A
:1010900003F302FA0CF241EA030100F10100704788
:1010A00020F07F4C80EA030023F07F47ACEB07037E
:1010B00003F57C5300F0004003F1FF032DE9804964
:1010C0004FEA154B09B44FEA144325EA0B4E24EAC4
:1010D00003480FF2042606EB132749083E785FEA1F
:1010E000320203FB0667C7F5000707FB06F64FEA67
:1010F00054374FEAD64606F1020607FB066CCCF1E0
:10110000005C4FEA1C472CEA074C07FB06F40CFB7B
:1011100006F504EB15464FEA961634BF00204FF053
:1011200000404FEAD13706FB07FC4FEA1C4C0CFB92
:101130000BF7D21B03FB0CF761EB07010CFB0EF75F
:10114000B0EB074072EB17420CFB08F734BFA2EB81
:101150000742B2EB074261EB17414FEA0C444FEAFA
:10116000910706FB07FC4FEA1C4C0CFB0BF7B0EB9E
:10117000C74072EB573203FB0CF734BFA2EBC742F8
:10118000B2EBC74261EB57310CFB0EF7B0EBC70077
:1011900072EB57720CFB08F734BFA2EBC702B2EB3D
:1011A000C70261EB5771039F4FEA816141EA9211D7
:1011B00004EBCC044FEAD1374FEA826206FB07FC0E
:1011C00042EA90124FEA80604FEA1C4C0CFB0BF78E
:1011D000D21B03FB0CF761EB07010CFB0EF7B0EB26
:1011E000074072EB17420CFB08F734BFA2EB074233
:1011F000B2EB074261EB17414FEA8C554FEA91077A
:1012000004EB9C2406FB07FC4FEA1C4C0CFB0BF781
:10121000B0EBC74072EB573203FB0CF734BFA2EBC5
:10122000C742B2EBC74261EB57310CFB0EF7B0EB94
:10123000C70072EB57720CFB08F734BFA2EBC70272
:10124000B2EBC70261EB577115EB4C254FEA816198
:1012500041EA92114FEA82624FEAD13742EA901294
:1012600006FB07FC44F100044FEA80604FEA1C4C87
:101270000CFB0BF7D21B03FB0CF761EB07010CFB1C
:101280000EF7B0EB074072EB17420CFB08F734BFC8
:10129000A2EB0742B2EB074261EB174115EB1C15BD
:1012A0004FEA813141EA92414FEA823242EA90426A
:1012B0004FEA80304FEA0C7644F1000448EA0343D9
:1012C0004EEA0B484FF0000EB2EB080C71EB03072F
:1012D00024BF624639464EEB0E0E4FF0000B00184D
:1012E000524149414BEB0B0BB2EB080C71EB03077E
:1012F0007BF1000B24BF624639464EEB0E0E4FF0D9
:10130000000B0018524149414BEB0B0BB2EB080CA0
:1013100071EB03077BF1000B24BF624639464EEBAD
:101320000E0E51EA020718BF46F0010616EB0E76C4
:1013300055F1000254F1000103D5BDE88901BDE873
:101340000088BDE88901BDE80048B619524141EB6B
:101350000101A3F10103704780807F7E7D7C7B7A51
:101360007978777676757473727171706F6E6E6D51
:101370006C6C6B6A6A6968686766666564646363F7
:1013800062616160605F5F5E5E5D5D5C5C5B5B5A7D
:101390005A595958585757565655555554545353EA
:1013A00052525251515050504F4F4F4E4E4D4D4D45
:1013B0004C4C4C4B4B4B4A4A4A4949494848484790
:1013C00047474746464645454544444444434343CE
:1013D0004342424242414141002B9C4630D4770077
:1013E0002BD01CB54FEA370703B44FF010004FF075
:1013F0001001BAF1000F06D0BCF1000FDCBF40F0C5
:10140000080040F008014FF000000FBCBDE810409C
:101410000BF1010BBBF1010F08BF5FEA170722BFF9
:1014200012F1010211F101014FF0004143F10003FB
:1014300000F0004043EA00007047F9D35708D0E7B6
:1014400046EA064613F1400F4FEA16461FDD13F138
:10145000200FDFBF16430A46002120335B42BED077
:10146000C3F1200746EA064602FA07F74FEA164696
:1014700046EA0706C3F1200722FA03F201FA07F74A
:1014800021FA03F14FF0000342EA0702A7E746EA18
:10149000020646EA06464FEA164646EA0106BCBF81
:1014A00046EA0646360C4FF000034FF000024FF0BC
:1014B000000194E72DE9804C9A46934670B491E878
:1014C000380007C831EA400C48BF34EA430C03D562
:1014D000FFF7E6FDFFF780FFF0BCBDE8008C2DE9CB
:1014E000804C9A46934670B491E8380007C810F0D3
:1014F000804F08BF13F0804F03D100F005F8FFF7CD
:101500006BFFF0BCBDE8008C20F07F4780EA030051
:1015100023F07F4C07EB0C03A3F57C5300F0004055
:10152000A3F1FE0392F0000F00F0B38095F0000FDE
:1015300000F077802DE901494FEA11404FEA144647
:1015400021EA004800FB06FC24EA064708FB06F6F1
:1015500007FB08F800FB07F718EB06484CEB164CA6
:101560004FEA124B18EB07484FEA15464CEB174071
:1015700022EA0B4E0BFB06FC25EA06470EFB06F69D
:1015800007FB0EFE0BFB07F71EEB064E4CEB164C53
:101590004FF000061EEB074E4CEB174B18EB0B08F9
:1015A00040F1000018EB0E0B58EB000840F1000072
:1015B0008F1A4FF000013CBFC943661B14BFB5EB47
:1015C000040C00213CBFC943F61B4FEA17444EEA06
:1015D0008E0E27EA04454FEA1C4704FB07622CEAFB
:1015E000074C05FB07F70CFB05F604FB0CFC16EBA0
:1015F000074642EB174216EB0C4642EB1C421BEB34
:10160000060658EB0202414146EA9E0601D5BDE8B6
:101610000189B619524141EB0101A3F10103BDE873
:1016200001894FEA14454FEA114724EA054621EAA9
:10163000074C05FB07F406FB07F70CFB06F105FB5F
:101640000CFC11EB074144EB17444FEA124711EB36
:101650000C4144EB1C4422EA074C05FB07F206FB55
:1016600007F70CFB06F605FB0CFC16EB074642EBF6
:10167000174216EB0C4642EB1C456A1854F1000168
:1016800048BF7047B619524141EB0101A3F1010374
:10169000704795F0000F37D04FEA11424FEA1447D8
:1016A00021EA024624EA074C02FB07F106FB07F792
:1016B0000CFB06F402FB0CFC14EB074441EB174156
:1016C0004FEA154714EB0C4441EB1C4125EA074C4B
:1016D00002FB07F506FB07F70CFB06F602FB0CFC0A
:1016E00016EB074645EB174516EB0C4645EB1C423F
:1016F000121951F1000148BF7047B619524141EB30
:101700000101A3F1010370474FEA14454FEA114765
:1017100024EA054621EA074C05FB07F106FB07F71B
:101720000CFB06F24FF0000605FB0CFC12EB074227
:1017300041EB174112EB0C4251EB1C4148BF704783
:10174000921841EB0101A3F10103704710B5846ABF
:10175000E16D11F0500F06D0E16DC90625D5204688
:1017600000F0DEFB10BDE06D40F40070E065206825
:101770000168090716D502F04FFC78B12068C068EF
:10178000800400280ADBE06D20F48070E065E06DE5
:10179000C00403D4E06D40F00100E065204600F095
:1017A000BDFB10BDC0688007EBE7616D496BBDE80C
:1017B0001040084710B5806AC16D41F04001C16515
:1017C000016E41F00401016600F0AAFB10BD10B5E6
:1017D000806A00F0A4FB10BD70B504460068816803
:1017E0008268C1F3400112F0010F28D039BB816833
:1017F00001F00D01012914D18168124A1140891CA0
:10180000816021680320086001F026F8054612E097
:1018100001F022F8401B02280DD920688068C0071B
:1018200009D0E06D40F01000E065206E40F001004E
:101830002066012070BD20688068C007E8D10020C4
:1018400070BD0000C0FFFF7F70B50446006881686E
:1018500011F0010F2DD18168174A11421AD1816808
:10186000D5432940491C816000F0F6FF06461BE085
:10187000816811F0010F03D181682940491C816002
:1018800000F0EAFF801B02280ED920680068C043E0
:10189000C00709D0E06D40F01000E065206E40F018
:1018A00001002066012070BD20680168C943C90796
:1018B000DED1002070BD00003F000080FEE7000088
:1018C00010B5034800F07DFD02490020087010BDEE
:1018D000440C002000000020014800F072BD000010
:1018E000740E0020014800F06CBD0000D40E0020F2
:1018F0000D4902688A4201D20C4901E00B492031AE
:10190000D2B21423083AB2FBF3F2436C02F01F0286
:1019100023F003031944816404498031C164012127
:101920009140016570470000080402400008024031
:101930000179074A02EB81024265054A4432491E99
:10194000826501F01F0201219140C16570470000CE
:10195000FC08024030B5D0E913456560446D14B110
:10196000D0E91645656090F8444004F01F05012455
:10197000AC40056C6C60046863608368102B03687E
:1019800003D099600068C26030BD9A600068C16091
:1019900030BD704772B6FEE7F8B5002604460096E3
:1019A00090F858000D4601280BD0012084F858000B
:1019B0002046FFF711FF0100E06D04D040F0100059
:1019C0002AE00220F8BD20F4885040F00200E065D3
:1019D00020688268134B1A4005F080431A4342F096
:1019E00000428260104A20680EE0009B5B1C00935E
:1019F000934209D3E06D20F0020040F01000E06552
:101A000084F858600120F8BD8368DB0FEDD1E06DEC
:101A100020F0020040F00100E06584F858600846BC
:101A2000F8BD0000C0FFFF3F02DE04002DE9F047D3
:101A3000044690F858009CB00E464FF0000901286B
:101A400015D0012084F858000025179518952068B6
:101A50004FF0A04840450ED1284F0097384602F07D
:101A6000D7FA8246206802F0D3FA60B10EE0022075
:101A70001CB0BDE8F087E06D40F02000E06584F820
:101A800058500120F4E7BAF1000F09D0E06D40F0A2
:101A90002000E0654FF0010984F858504846E7E718
:101AA0001748326840F61F71002A826822F46042AB
:101AB00016D094F8383042EA433273681A43826091
:101AC000D8F80820BB6802F0010203F001031A43B2
:101AD000E2D1B36832681A4383688B431A430BE040
:101AE0008260D8F80820BB6802F0010203F001030D
:101AF0001A43D1D182688A438260CDE70001005049
:101B0000000300502DE9F84F00270446009790F895
:101B10005800DFF8D8930D46B846012811D00126A9
:101B200084F85860206802F06FFA60B1E06D40F010
:101B30002000E0655FF0010784F858803846BDE872
:101B4000F88F0220FBE7D5E900210C23206803EA87
:101B500091131844036B01F01F014FF01F0C0CFA96
:101B600001FCC2F3846223EA0C038A40134303633B
:101B7000206802F049FA8246206802F041FA5AEAE7
:101B800000003CD1AA6829682068B2F1004F37D024
:101B900002F04AFA2068416921F000414161206861
:101BA0006969C268C2F3C102520091402A69042ADD
:101BB00031D000EB82002B68026EDFF834C303F0F3
:101BC000F84302EA0C020B431A4342F0004101665B
:101BD00020682A69A96900EB8200026E22F08072F7
:101BE0000A430266297F22682869012910D0002152
:101BF00002EB8000026E22F000720A4302667DE072
:101C0000002202F011FA2068416941F00041C5E765
:101C10004FF00071ECE7002102F0ECF9400320687E
:101C20004FF0000172D002F0E5F990FAA0F0B0FA9E
:101C300080F1286842036ED090FAA0F0B0FA80F0EC
:101C4000814204D100221146206802F0FCF90121F2
:101C5000206802F0CFF9400320684FF001015DD009
:101C600002F0C8F990FAA0F0B0FA80F128684203B7
:101C700059D090FAA0F0B0FA80F0814204D100224D
:101C80000121206802F0DFF90221206802F0B2F998
:101C9000400320684FF0020148D002F0ABF990FAFF
:101CA000A0F0B0FA80F12868420344D090FAA0F086
:101CB000B0FA80F0814204D100220221206802F0B3
:101CC000C2F90321206802F095F9400320684FF023
:101CD000030133D002F08EF990FAA0F0B0FA80F14F
:101CE000286842032FD090FAA0F0B0FA80F0814229
:101CF00004D100220321206802F0A5F92068816840
:101D000011F0010F22D0A8E000E004E002F072F927
:101D1000C0F384618DE7C0F3846091E702F06AF953
:101D2000C0F38461A2E7C0F38460A6E702F062F921
:101D3000C0F38461B7E7C0F38460BBE702F05AF9EF
:101D4000C0F38461CCE7C0F38460D0E7EB68296816
:101D50004B4550F8B03FC1F3120101D10B4300E0F5
:101D60008B430360E868484577D1286841031CD05D
:101D700090FAA0F1B1FA81F1491C01F01F01092983
:101D80004FEA403132D8002912D000BF90FAA0F1BA
:101D9000B1FA81F101F1010101F01F0106FA01F62A
:101DA00009D100BFC0F3846109E0C0F38461E3E7B7
:101DB000C0F38461EEE790FAA0F1B1FA81F101F18C
:101DC000010101F01F0146EA816102D1C0F3846084
:101DD00003E090FAA0F0B0FA80F000F1010000F00A
:101DE0001F0000EB400041EA005132E000290ED014
:101DF00090FAA0F1B1FA81F101F1010101F01F01A6
:101E000006FA01F606D100BFC0F3846106E0C0F314
:101E10008461F1E790FAA0F1B1FA81F101F10101D9
:101E200001F01F0146EA816102D1C0F3846003E042
:101E300090FAA0F0B0FA80F000F1010000F01F006D
:101E40002C4A00EB400002EB005041EA000141F057
:101E50000071AA68206802F0E7F827482A68024261
:101E60003FF46AAE25488168254B01F0E0719A4243
:101E700002D0244B9A421CD10B021AD42268B2F130
:101E8000A04F7FF459AE826841F4000122F0E07265
:101E90000A4382601C481D490068B0FBF1F0401CF9
:101EA00000EB4000800000E0401E00900028FBD1C5
:101EB00042E6174D174BAA4207D1CD0105D422683F
:101EC0009A42F5D041F0807109E0134DAA42EFD15A
:101ED0004A02EDD422689A42EAD041F48001826835
:101EE00022F0E0720A43826026E6000000007F4094
:101EF00000F0FF03000020FE0000088000030050F7
:101F0000000021C31000C09020000020400D0300FD
:101F1000000052C700010050000084CB704770479A
:101F200070470000F8B54FF0000504002E460095FC
:101F300002D0E06D10B107E00120F8BD204600F0AE
:101F4000EFF8266684F8586020688168C1F3407114
:101F500019B181686A4A1140816020688168C1F3C3
:101F6000007189B98168674A114041F080518160F0
:101F7000654866490068B0FBF1F04000801C00E055
:101F8000401E00900028FBD120688168C1F30071D9
:101F900041B9E16D41F01001E165216E41F00101AF
:101FA0002166012502F030F8E16DC90600D430B198
:101FB000E06D40F01000E06501252846F8BDE06DB9
:101FC00020F4807040F00200E0652068806810F026
:101FD000010F11D14FF0A04080684D4900F0010081
:101FE000896801F00101084306D14A4861688268A6
:101FF00022F47C120A438260E168E06B627F08434E
:10200000A16841EA4231084394F8241040EA0140B3
:10201000012904D1218D404A02EB41410843E16A84
:1020200029B101F47871226B014342EA0100216871
:10203000CA683A4B1A400243CA6020680169626B61
:1020400021F0406111430161206801F0DDFF064687
:10205000206801F0D5FF30432ED1207F94F838104E
:10206000800340EA41022068C16844F202039943B8
:102070001143C16020690028206801690AD041F439
:1020800080310161206850F8C01F22696FF30D0193
:10209000114307E021F480310161206850F8C01F2E
:1020A0006FF30D01016094F8400001280CD0206806
:1020B000016921F001010161606901282068016B5B
:1020C00021F00F0111D013E0D4E911010843D4E944
:1020D00013121143084321680A6940F2FC739A43C2
:1020E000104340F001000861E6E7226A521E1143E6
:1020F0000163E06D20F0020040F00100E0655CE764
:10210000C0FFFF5FC0FFFF7F20000020400D0300E5
:1021100000010050000300500000FEFF0740F0FFE8
:1021200070B598B00546142111A8FEF7F6FA4421BF
:102130006846FEF7F2FA2868B0F1A04F4ED14FF48E
:102140000040009080030F90684600F083FC08B1C7
:10215000FFF720FC2249C86C40F40050C864C86CEA
:1021600000F400501690C86C40F00100C864C86CC0
:1021700000F001001690C86C40F00200C864C86C02
:102180000324002600F002001194CDE912461690B7
:1021900011A94FF0904000F029FA11A94FF4006006
:1021A00081E851000F4800F021FA104C0E482060E1
:1021B0000520C4E901068020C4E903604000606195
:1021C0008000A0612020E06100022062204600F033
:1021D00055F908B1FFF7DEFB6C65A56218B070BD5C
:1021E000001002400004004808000240440C002097
:1021F0002DE9F0410446344817468846806800F0CF
:102200001F05206801F000FF00285AD194F85800FB
:10221000012856D0012084F85800002625B1052D4C
:1022200002D0092D00D003E02046FFF70DFB18B1C6
:1022300084F85860BDE8F081E06D40F601618843A4
:1022400040F48070E06521492068884202D14FF057
:10225000A04100E00146814200D01DB9E06D20F4AC
:102260008010E065E06DC00404D5206E20F006000B
:10227000206600E02666616D1548C862616D1548EC
:102280000863616D1448486321681C20086084F865
:1022900058602068416841F0100141602068C168C1
:1022A00041F00101C16021683B4642464031606D0A
:1022B00000F044F921688A68084B1A40121D8A60B0
:1022C000B8E70220B6E7000000030050000100500C
:1022D0004D170008CF170008B5170008C0FFFF7F93
:1022E00010B590F8253000210122022B03D00421E3
:1022F000C163012122E003681C6824F00E041C6005
:10230000836C1C6824F480741C6003681C6824F0CF
:1023100001041C6090F84430046C03F01F0302FABF
:1023200003F36360D0E913345C60436D33B11C6820
:1023300024F480741C60D0E916345C6080F8252099
:10234000002280F82420084610BD70B590F82520A2
:10235000002401212346022A07D00422C26380F808
:10236000251080F82430012429E00268156825F042
:102370000E0515600268156825F001051560826C70
:10238000156825F48075156090F84420056C02F0FE
:102390001F0201FA02F26A60D0E913255560426D0E
:1023A00032B1156825F480751560D0E916255560A1
:1023B00080F8251080F82430816B01B188472046D1
:1023C00070BDF0B4016C0C6801680D6890F8442091
:1023D00002F01F06042202FA06F3234211D06B0713
:1023E0000FD50B689B0603D40B6823F004030B6026
:1023F00090F8441001F01F018A40016C4A60016BA3
:102400001DE0022303FA06F727424FF0000C4FF0BD
:10241000010218D0AF0716D50C68A40605D40C68C5
:1024200024F00A040C6080F8252090F8441001F094
:102430001F018B40016C4B6080F824C0C16A0029E9
:102440001AD0F0BC08470823B340234214D02B070E
:1024500012D50B6823F00E030B6090F84410036C48
:1024600001F01F0102FA01F15960C26380F82520D2
:1024700080F824C0416BE2E7F0BC704770B50400FF
:102480000CD02B4A21681420914209D2294A0A44CF
:10249000B2FBF0F08000606427480AE0012070BDC4
:1024A000234A52420A44B2FBF0F0800060642048A4
:1024B00008382064022084F825000A6847F6F07086
:1024C0008243D4E902031843D4E904352B4318436B
:1024D000A3691843E3691843236A1843104308604B
:1024E0002046FFF705FAA0680025B0F5804F00D11F
:1024F0006560A16C20790860D4E9130141606068CF
:10250000401E032808D82046FFF712FA606D0560C8
:10251000D4E91601416002E06565A565E565E563FE
:10252000012084F8250084F82450002070BD0000AC
:1025300008040240F8FFFDBF0000024070B50446E9
:1025400090F82400002501280CD0012084F82400F4
:1025500094F825600020012E06D084F8240002257E
:10256000284670BD022070BD022684F82560E06315
:102570002068066826F0010606602046FFF7EAF9A3
:10258000206B00282068016802D041F00E0106E0AF
:1025900021F0040101602068016841F00A01016036
:1025A000A06C0168C90303D5016841F48071016022
:1025B000606D18B1016841F48071016020680168A4
:1025C00041F001010160CBE770B5044600F044F929
:1025D0000546601C02D004484068044400F03CF901
:1025E000401BA042FAD370BD140000202DE9F04F2B
:1025F000DFF82092002301260324A9F1040B85B003
:102600000F2709F1040AABF1040EFAE006FA03F50C
:102610002A407CD091F804C00CF0030CBCF1010FEF
:1026200002D0BCF1020F26D1D0F808C0CDF800C00E
:102630004FEA430C04FA0CF8CDF810C0DDF800C0E6
:102640002CEA080CCDF800C0D1F80C80DDF810C0E1
:1026500008FA0CF8DDF800C048EA0C08C0F8088059
:10266000D0F804C02CEA050C0D79C5F300159D4087
:1026700045EA0C0545600D79ED43AD070ED0C56800
:102680004FEA430804FA08FC25EA0C05D1F808C013
:102690000CFA08FC4CEA050CC0F80CC00D7905F0EA
:1026A0000305022D16D1DD0800EB850CCDF808C01E
:1026B000DCF820805D074FEAD56C07FA0CF528EAB4
:1026C00005080D6905FA0CF5DDF808C045EA0805AE
:1026D000CCF8205005684FEA430CCDF808C004FA46
:1026E0000CFC25EA0C0591F804C00CF00308DDF899
:1026F00008C008FA0CF848EA0508C0F800804D68E0
:1027000015F4403F7CD0444DD5F860C000E077E040
:102710004CF0010CC5F860C02D6E23F0030C05F0E1
:10272000010500953D4D65440295AD684FEA837CF7
:102730004FEA1C7807FA08FC25EA0C05B0F1904F27
:1027400006D0DFF8DCC0604505D14FF0010C20E079
:102750004FF0000C1DE0DFF8CCC0604502D14FF017
:10276000020C16E0DFF8C0C0604502D14FF0030C48
:102770000FE0DFF8B8C0604502D14FF0040C08E06C
:10278000DFF8ACC0604502D14FF0050C01E04FF01E
:10279000060C0CFA08FC4CEA050C029DC5F808C0B2
:1027A000D9F80050CC46D1F8048095435FEAC82898
:1027B00000D51543CCF80050DAF80050D446D1F8D3
:1027C000048095435FEA882800D51543CCF8005073
:1027D000DBF80050DC46D1F8048095435FEA883886
:1027E00000D51543CCF80050DEF80050F446D1F87F
:1027F000048095435FEAC83800D51543CCF80050F3
:102800005B1C0A6832FA03F57FF400AF05B0BDE83F
:10281000F08F000008040140001002400000014059
:102820000004004800080048000C00480010004860
:10283000001400480069084000D001207047426938
:1028400021EA02030A4043EA0241816170470AB16A
:10285000816170478162704701488068704700005D
:10286000140000200248816842681144816070476A
:102870001400002010B50024032000F073F80F208E
:1028800000F008F808B1012401E000F025F8204626
:1028900010BD000070B50E4E05460024706898B15A
:1028A0004FF47A71B1FBF0F00A490968B1FBF0F01E
:1028B00000F09CFE40B9102D06D200222946501E81
:1028C00000F030F8356000E00124204670BD0000C3
:1028D00014000020200000200A4882B0016E41F060
:1028E00001010166016E01F001010091816D41F06D
:1028F00080518165806D00F08050009002B000F042
:10290000A1B8000000100240002809DB00F01F02FF
:10291000012191404009800000F1E020C0F8001141
:1029200070470000F0B40E4B1B680C46C3F3022343
:10293000C3F10705042D00D90425191D072901D26B
:10294000002300E0DB1E012606FA05F1491E2140A6
:1029500099409E40761E16403143F0BC02F0ABBE5B
:102960000CED00E0064900F0070208684FF6FF038F
:10297000184040EA0220034A1043086070470000F4
:102980000CED00E00000FA052B492C4B0A683221BF
:102990004A432B4940B1B0F5007F086829D020F4A4
:1029A000C06040F480602CE00868C0F34120022839
:1029B00004D051F8800F20F4807022E0D1F880001C
:1029C00020F48070C1F88000086820F4C06040F4F2
:1029D00000700860B2FBF3F0401C00E0401E4A6942
:1029E000520501D50028F9D1486940050AD50320D0
:1029F0007047C0F34120022806D051F8800F40F400
:102A00008070086000207047D1F8800040F480702A
:102A1000C1F88000086820F4C06040F400700860CD
:102A2000B2FBF3F0401C00E0401E4A695205DBD5C2
:102A30000028F9D1D8E700002000002040420F0014
:102A4000007000400248816841F480418160704715
:102A5000007000402DE9F8430446006800269D4DB3
:102A600000035ED5A86D0027C00008D4A86D40F013
:102A70008050A865A86D012700F080500090DFF815
:102A80005892D9F8001041F48071C9F80010FFF78E
:102A9000E3FE804606E000BFFFF7DEFEA0EB080085
:102AA00002282BD8D9F80000C005F5D5D5F890003C
:102AB00010F4407014D0216C814211D0D5F89000F0
:102AC000D5F8901020F4407041F48031C5F8901092
:102AD000D5F8901021F48031C5F89010C5F8900019
:102AE000C00711D0FFF7B8FE804641F2883907E0F1
:102AF000FFF7B2FEA0EB0801494501D903260BE020
:102B0000D5F890008007F3D5D5F89000216C20F41B
:102B100040700843C5F890001FB1A86D20F08050A8
:102B2000A8652078C00707D0D5F88800616820F034
:102B300003000843C5F888002078800707D5D5F83A
:102B40008800A16820F00C000843C5F888002078B0
:102B5000400707D5D5F88800E16820F03000084329
:102B6000C5F888002078000707D5D5F888002169C6
:102B700020F0C0000843C5F888002078800607D5FB
:102B8000D5F88800616920F440600843C5F88800E2
:102B90002078400607D5D5F88800A16920F4405078
:102BA0000843C5F888002078000607D5D5F88800C6
:102BB000E16920F440400843C5F888002088C0053A
:102BC00007D5D5F88800216A20F440300843C5F8BD
:102BD00088002088800507D5D5F88800616A20F430
:102BE00040200843C5F88800208840050FD5D5F857
:102BF0008800A16A20F440100843C5F88800A06A44
:102C0000B0F5801F03D1E86840F48010E8602088A8
:102C100000050FD5D5F88800E16A20F4400008438C
:102C2000C5F88800E06AB0F5800F03D1E86840F489
:102C30008010E8602088C0040FD5D5F88800216B8B
:102C400020F040700843C5F88800206BB0F1807F09
:102C500003D1E86840F48010E86020884FF00061FC
:102C600080040ED5D5F88800626B20F040601043D8
:102C7000C5F88800606B884203D1E86840F4801092
:102C8000E860208840040ED5D5F88800A26B20F0BB
:102C900040601043C5F88800A06B884203D1E86803
:102CA00040F48010E860208800040FD5D5F8880033
:102CB000E16B20F040500843C5F88800E06BB0F1AC
:102CC000805F03D1E86840F48030E8603046BDE8BA
:102CD000F883000000100240007000402DE9F0472A
:102CE0000E4605004FF0000725D0DFF8AC81D8F87C
:102CF000000000F00F00B0420CD2D8F8001021F014
:102D00000F013143C8F80010D8F8000000F00F00A0
:102D1000B04210D12968614CC80741F2883A5AD0B4
:102D20006868DFF87C91032808D0022820682DD03D
:102D3000400500282CDB0120BDE8F08720688001D9
:102D4000F9D5E06800F00302E068C0F30310401C0E
:102D5000032A19D0534A00BFB2FBF0F0E268C2F375
:102D600006225043E268C2F34162521C5200B0FB9B
:102D7000F2F0484517D9A06810F0F00F0CD0880782
:102D800011D5A86840B10EE0474AE5E78003D0E7D7
:102D900000F0B6F8484506D9A06820F0F00040F0F1
:102DA0008000A0608027A068696820F003000843C5
:102DB000A060FFF751FD814606E000BFFFF74CFD24
:102DC000A0EB090151453AD8A068696800F00C00F1
:102DD000B0EB810FF2D12868810714D5400703D5E5
:102DE000A06840F4E060A0602878000705D5A068DE
:102DF00020F4605040F4E060A060A068A96820F072
:102E0000F000084304E0802F03D1A06820F0F00018
:102E1000A060D8F80010404601F00F01B14216D969
:102E2000016821F00F0131430160FFF715FD0746EE
:102E300007E000BFFFF710FDC11B514501D903207A
:102E40007AE7D8F8000000F00F00B042F2D12878FD
:102E5000400705D5A068E96820F4E0600843A06059
:102E60002878000706D5A068296920F4605040EA58
:102E7000C100A06000F044F8A1680C4AC1F303113E
:102E8000515C01F01F01C840094908600948006809
:102E9000BDE8F047FFF7FEBC0020024000100240F2
:102EA00000B4C4040024F40000366E01BC760008AF
:102EB00020000020140000200548064900688968A9
:102EC000054AC1F30221515C01F01F01C84070475F
:102ED0002000002000100240CC760008054806497A
:102EE00000688968054AC1F3C221515C01F01F01E5
:102EF000C84070472000002000100240CC76000837
:102F0000184910B58868C0F381021748012A0BD010
:102F10008A68164BC2F38102022A06D08A68C2F37D
:102F20008102032A03D0002010BD184610BDCA68D4
:102F300002F00304CA68C2F30312521C032C02D02D
:102F4000B0FBF2F001E0B3FBF2F0CA68C968C2F36B
:102F500006225043C1F34161491C4900B0FBF1F026
:102F600010BD0000001002400024F40000366E0185
:102F70002DE9F84304007AD02078FA4DC00747D0F5
:102F8000A868E96800F00C0001F003010C2802D0E9
:102F9000082817D001E0032914D06068B0F5803FFD
:102FA00017D0B0F5A02F286817D020F48030286003
:102FB000286820F4802028606068E0B1FFF74CFCAE
:102FC000064614E02868800322D560680028D2D025
:102FD0001EE0286840F48030EDE740F4802028604F
:102FE000F7E700BFFFF738FC801B642870D828681B
:102FF0008003F7D50CE0FFF72FFC064605E000BF85
:10300000FFF72AFC801B6428F0D828688003F7D4D7
:10301000207880074CD5A868E96800F00C0001F022
:1030200003010C2802D004280DD001E002290AD0A7
:10303000E068002828682BD040F480702860FFF7F3
:103040000BFC064619E02868400502D5E068002818
:1030500091D06868217C20F0FE4040EA0160686001
:10306000C1480068FFF716FC002800D120E076E197
:10307000FFF7F2FB801B0228B8D828684005F7D577
:103080006868217C20F0FE4040EA016068600FE043
:1030900020F480702860FFF7DFFB064605E000BFE4
:1030A000FFF7DAFB801B0228A0D828684005F7D478
:1030B0002078000729D560690028D5F8940013D03E
:1030C00040F00100C5F89400FFF7C6FB064606E095
:1030D00090E000BFFFF7C0FB801B022886D8D5F820
:1030E00094008007F6D510E020F00100C5F89400A8
:1030F000FFF7B2FB064604E0FFF7AEFB801B022899
:1031000078D8D5F894008007F6D42078400761D5A8
:10311000A86D0026C00008D4A86D40F08050A865B6
:10312000A86D012600F08050009090480168C90504
:1031300011D40168804641F480710160FFF78CFB77
:10314000074604E0FFF788FBC01B022852D8D8F8D6
:103150000000C005F6D5A068012815D00528D5F8CF
:10316000900016D020F00100C5F89000D5F890002E
:1031700020F00400C5F89000A06841F28838B8B18A
:10318000FFF76AFB07460EE0D5F8900040F001001B
:10319000F0E740F00400C5F89000F5E7FFF75CFBAE
:1031A000C11B414526D8D5F890008007F6D50CE024
:1031B000FFF752FB074604E0FFF74EFBC11B4145FA
:1031C00018D8D5F890008007F6D41EB1A86D20F06D
:1031D0008050A8652078800629D5A0690028D5F8F8
:1031E000980013D040F00100C5F89800FFF734FBB9
:1031F000064606E077E000BFFFF72EFB801B0228A3
:1032000077D8D5F898008007F6D510E020F00100B7
:10321000C5F89800FFF720FB064604E0FFF71CFB0B
:10322000801B022865D8D5F898008007F6D4E0699D
:10323000F0B3A968C1F38101032961D0022828688D
:1032400020F0807028600BD0E86820F00300E86070
:10325000E86847490840E860FFF7FEFA04464BE09B
:10326000FFF7FAFA064604E0FFF7F6FA801B022899
:103270003FD828688001F7D4F4E908016FF00F0205
:1032800002EB01110843218A5204490802EB415123
:10329000A26841EA02210843217D4FF07E4249089D
:1032A00002EB41610843217B40EAC160E96800E02C
:1032B00062E0304A11400843E860286840F08070BE
:1032C0002860E86840F08070E860FFF7C5FA0446BF
:1032D00005E000BFFFF7C0FA001B022809D82868E4
:1032E0008001F7D548E004E0FFF7B6FA001B02289A
:1032F00002D90320BDE8F88328688001F4D43BE0BC
:103300000128F7D0E868226A00F00301914226D133
:10331000616A00F0F0020901103991421FD1A26ADE
:1033200000F4FE41B1EB022F19D194F82C2000F0EB
:103330007841B1EBC26F12D1218E00F4C00249086E
:103340004905A1F50011914209D194F8341000F01B
:10335000C06049084906A1F1007181420CD00120EA
:10336000C8E7000000100240140000200070004078
:10337000FFFFEEFE0C809F010020BBE700680349C1
:10338000884202D102490120087170470030014093
:103390000000002038B5016804464A688868C043C8
:1033A000430606D5C30704D1D3435B0601D4E16CC1
:1033B00005E0830708D4D3431B0605D4216D01B073
:1033C0002046BDE830400847830603D5430601D5B3
:1033D000C30551D4D3439B064ED443060AD494F874
:1033E0005D30032B49D0236E43F004032366CB6882
:1033F0008B680093830609D4236E43F00103236690
:103400008B6800930B6823F040030B60C00506D463
:10341000206E40F008002066206880680090206ED2
:10342000002829D02068416821F0E0014160012096
:1034300084F85D00900701D4D00722D0206841684D
:1034400021F003014160114DA06D40B18563A06D75
:10345000FEF77BFF18B1206E40F040002066606DE3
:10346000002809D08563606DFEF76FFF002803D048
:10347000206E40F04000206638BDC8688868009023
:1034800038BD2046FFF77AFF38BD0000B549000877
:1034900070B5040009D0606A002540B125616561FE
:1034A000A56294F85D0040B10CE0012070BD606839
:1034B000B0F5827FF4D0E561F2E784F85C502046F5
:1034C00000F05CF8022084F85D002068016821F0BB
:1034D00040010160E1684FF4E062914201D90020AF
:1034E00001E04FF48050B1F5706F02D0914200D0EE
:1034F000A562A188228901F4827102F40442114379
:10350000227C02F002021143227D02F001021143EB
:10351000228B02F400721143227F02F03802114321
:1035200094F8202002F080021143228D02F4005210
:10353000114322681160A169042202EA114194F842
:10354000242000F4805002F01002114394F834203B
:1035500002F008021143A28902F470621143014390
:10356000206841602068C16921F40061C16125665D
:10357000012084F85D00002070BD000010B586B009
:10358000044614216846FDF7C8F8164920688842A9
:1035900026D11548016E41F480510166016E01F497
:1035A00080510591C16C41F00101C164C06C0021E2
:1035B00000F001000590E02000900220CDE901011B
:1035C00003900520049069464FF09040FFF70EF8F5
:1035D000002201212320FFF7A5F92320FFF794F90A
:1035E00006B010BD003001400010024010B5401E72
:1035F000B0F1807F01D3012010BD4FF0E024606165
:103600000F21601702F057F80020A0610720206109
:10361000002010BD70477047704770477047704773
:103620007047704770B50446006801694FF00005A7
:10363000C943890715D4C168C943890711D4E91E54
:10364000016101202077206880698007204602D030
:10365000FFF7E7FF04E000F0E3F8204600F0E1F8B0
:10366000257720680169C943490717D4C168C94350
:10367000490713D46FF0040101610220207720680C
:10368000806910F4407F204602D0FFF7CAFF04E0B3
:1036900000F0C6F8204600F0C4F8257720680169DC
:1036A000C943090716D4C168C943090712D46FF08A
:1036B00008010161042020772068C0698007204646
:1036C00002D0FFF7AEFF04E000F0AAF8204600F0B9
:1036D000A8F8257720680169C943C90617D4C168CD
:1036E000C943C90613D46FF0100101610820207787
:1036F0002068C06910F4407F204602D0FFF791FF98
:1037000004E000F08DF8204600F08BF82577206863
:103710000169C943C90708D1C168C943C90704D1B0
:10372000891E0161204600F07DF820680169C943C7
:10373000090609D4C168C943090605D46FF08001A0
:1037400001612046FFF767FF20680169C943C90589
:1037500009D4C168C943090605D46FF480710161B9
:103760002046FFF757FF20680169C943490609D47D
:10377000C168C943490605D46FF040010161204684
:1037800000F051F820680169C943890609D4C1686D
:10379000C943890605D46FF0200101612046FFF777
:1037A0003BFF20680169C943C90209D4C168C94304
:1037B000C90205D46FF4801101612046FFF72EFF86
:1037C00020680169C943890209D4C168C9438902D3
:1037D00005D46FF4001101612046FFF71EFF206839
:1037E0000169C943490209D4C168C943490205D4E2
:1037F0006FF4800101612046FFF711FF2068016925
:10380000C94309020BD4C168C943090207D46FF444
:10381000000101612046BDE87040FFF701BF70BDA7
:10382000704770477047704790F88010012918D092
:10383000012180F880102421C0F8841050F8641B06
:103840000A680B6823F001030B6022F0005100228C
:10385000026050F8643C1960202101620277104632
:103860007047022070477047704770B5044690F863
:10387000800001281DD0012084F880002420C4F895
:10388000840020680568026822F001020260206856
:10389000826822F060620A438260204601F056F995
:1038A000206805602020C4F88400002084F880008F
:1038B00070BD022070BD70B5044690F880000128EC
:1038C0001DD0012084F880002420C4F884002068E2
:1038D0000568026822F0010202602068826822F016
:1038E00060420A438260204601F030F9206805609A
:1038F0002020C4F88400002084F8800070BD0220DD
:1039000070BD7047704770472DE9F0410368044669
:10391000D86919689A6840F60F0528424FF00005EB
:1039200009D186067ED501F0200602F080573E437D
:1039300078D0216F27E1A94EA94F16400F40374399
:1039400070D0C70709D0CF0507D501271F62D4F86B
:103950008C3043F00103C4F88C3083070AD5D307B9
:1039600008D0276802233B62D4F88C3043F004036C
:10397000C4F88C3043070AD5D30708D0276804233E
:103980003B62D4F88C3043F00203C4F88C30030758
:103990000CD501F02003334308D026680823336296
:1039A000D4F88C3043F00803C4F88C3003050BD5F1
:1039B0004B0109D526684FF400633362D4F88C308C
:1039C00043F02003C4F88C30D4F88C30002B3AD06C
:1039D000800609D501F0200002F08051084303D091
:1039E000216F09B120468847D4F88C002168896886
:1039F000490602D410F0280F27D0204601F0B4F970
:103A00002068806840061BD52068083050E8001FF9
:103A100021F0400140E80012002AF5D1E06F78B1B2
:103A2000704900E017E08163E06FFEF78EFC00282C
:103A300009D0E06F816B00E02046BDE8F041084707
:103A40002046FFF760FFBDE8F0812046FFF75BFFEF
:103A5000C4F88C50F7E7E76E2026012F7ED1C70609
:103A60007CD5CF067AD51020186220688068400681
:103A700042D5E16F086840680004000CE3D0B4F858
:103A80005C208242DFD9A4F85E00086800688006E6
:103A90002BD4206850E8001F21F4807140E8001208
:103AA000002AF6D12068083050E8001F21F00101FB
:103AB00040E80012002AF5D12068083050E8001FC5
:103AC00021F0400140E80012002AF5D1C4F88860D6
:103AD000E566216851E8000F20F0100041E800027F
:103AE000002AF6D1E06FFEF7FBFBB4F85C00B4F8F7
:103AF0005E10401A81B22CE0B4F85C00B4F85E109D
:103B0000401A81B2B4F85E0000289CD000299AD0F7
:103B1000226852E8000F20F4907042E80003002B66
:103B2000F6D12E4BDB432068083050E8002F1A40B6
:103B300040E80027002FF6D1C4F88860E5662567C5
:103B4000226852E8000F20F0100042E80003002B2A
:103B5000F6D12046FFF787FE75E7FFE7C70209D5D4
:103B6000570207D54FF4801018622046BDE8F04197
:103B7000FFF7C8BE03060AD501F0800302F4000275
:103B8000134304D0616F00297FF456AF5BE7420610
:103B900011D54A060FD52046016851E8002F22F0C2
:103BA000400241E80023002BF6D1C0F8846045674D
:103BB00000F00CFA47E7020206D54A0004D5204679
:103BC000BDE8F041FFF79DBEC001C5D50029C3DAAD
:103BD0002046BDE8F041FFF747BE0000010000109D
:103BE00020010004B94C000810B5040003D0D4F83B
:103BF000840010B107E0012010BD002084F880008F
:103C0000204600F027F82420C4F8840020680168CA
:103C100021F001010160204601F0FEFA0128EBD0FD
:103C2000A06A10B1204600F0B3FF2068416821F47B
:103C3000904141602068816821F02A0181602068FC
:103C4000016841F0010101602046BDE8104001F02B
:103C500003B800002DE9F04F97B00646142111A8D3
:103C6000FCF75BFD44216846FCF757FD4E49306880
:103C70004E4DDFF83CB1002402274FF007084FF00B
:103C800010094FF0800A884248D10120CDE9000494
:103C90006846FEF7DFFE08B1FDF77CFE286E40F4B3
:103CA00080402866286E00F480401690E86C40F052
:103CB0000200E864E86C11A900F002001690C02030
:103CC000CDE911070320CDF85480CDE913405846C3
:103CD000FEF78CFC3748416841F48031416041680F
:103CE00041F400314160354D334828601920686047
:103CF000C5E90294C5E904A4AC61EC6128462C62D4
:103D0000FEF7BCFB08B1FDF745FEB5670022114682
:103D10002520AE62FEF706FE252040E028498842B5
:103D20003FD1684600970294FEF794FE08B1FDF774
:103D300031FEA86D40F40030A865A86D00F4003095
:103D40001690E86C40F00200E864E86CCDE912746B
:103D500000F0020016901820CDE91448119011A926
:103D60005846FEF743FC154D134860351430286063
:103D70001B206860C5E90294C5E904A4AC61EC614C
:103D800028462C62FEF77AFB08B1FDF703FEB56703
:103D9000002211462620AE62FEF7C4FD2620FEF763
:103DA000B3FD17B0BDE8F08F0038014000100240AD
:103DB000000400480000014008040240740E002086
:103DC0000044004030B4D0F88830202B20D1E1B13D
:103DD000DAB190F88030012B1AD0012380F88030BE
:103DE0000023C3660B4C0368A3420BD05B681B0225
:103DF00008D5046854E8003F43F0806344E8003588
:103E0000002DF6D130BC01F041BB012030BC704721
:103E10000220FBE7008000400068104988421BD167
:103E20000F49104B0846CA79007A0D2A0CD00A2A8D
:103E30000AD00F2802D21A54401C087208490122E5
:103E4000C91D0948FFF7BEBF0028F7D000221A5449
:103E5000012048720A72F1E77047000000440040F8
:103E600000000020C8030020E40D00202DE9F843E5
:103E70000446D0F884001F4616460D46202851D12E
:103E8000DDB1D6B194F8800001284BD0012084F830
:103E900080004FF00008C4F88C802120C4F8840012
:103EA0001834FEF7D9FCA6878146E68754F8100C33
:103EB000183CB0F5805F03D004E00120BDE8F88332
:103EC000206920B12E46002584F8808010E000266D
:103ED000FAE78021204601F065FBB8B9C6B116F8B3
:103EE000010B21688862B4F85600401EA4F8560001
:103EF000B4F856004B464FF0000200970028E8D176
:103F00004FF04001204601F04DFB30B10320D5E7D2
:103F100035F8020BC0F30800E3E72020C4F8840062
:103F20000020CBE70220C9E770B50446D0F8840032
:103F3000202842D171B36AB394F8800001283CD0A4
:103F4000012084F880002165A4F85420A4F85620AC
:103F50000025C4F88C502120C4F88400A06FD8B18B
:103F60001749C162A16F174813460863A16F16482D
:103F70004863A06F85632668216D06F12802A06F53
:103F8000FEF7DCFA40B11020C4F88C0004F8805F22
:103F900020206060012070BD21684020086284F804
:103FA00080502068083050E8001F41F0800140E850
:103FB0000012002AF5D1002070BD022070BD000063
:103FC0001D4D00085F4D0008CD4C000800680549F4
:103FD000884206D104490020487120210348FEF799
:103FE0002EBC70470038014000000020000400484B
:103FF0007047FEE700EB8100006E00F0F84070476C
:104000008068C0F3C00070478068C0F380007047CC
:104010008068C0F380007047C06810F4406F01D022
:104020000020704701207047042303EAD15310B5E4
:1040300018444369C1F3045107248C40A3438A40C8
:104040001343436110BD00EB8100016E21F000417C
:1040500011430166704770B54FF400744FF09045FE
:10406000002221462846FEF7F2FB012216023146C5
:104070002846FEF7ECFB00F00EF8002231462846F9
:10408000FEF7E5FB00F007F821462846BDE8704042
:104090000122FEF7DCBB08B500200090401C009018
:1040A0000A28FBDB08BD000010B586B01421684665
:1040B000FCF733FB1148C16C41F00101C164C06CD5
:1040C0004FF0904400F0010005904FF440700090D4
:1040D00011200190012002900220039069462046A1
:1040E000FEF784FA012211022046FEF7B0FB0122FE
:1040F00051022046FEF7ABFB06B010BD0010024097
:1041000070B501224FF0904451022046FEF79FFB0C
:104110000122150229462046FEF799FBFFF7BBFF57
:10412000002229462046FEF792FBBDE87040FFF7CB
:10413000B2BF2DE9F04385B08046002414216846C3
:10414000FCF7EBFA4FF400760020CDE90060012087
:104150004FF09047029069463846FEF747FAB1465D
:104160003E4600254FF48077002239463046FEF760
:104170006EFBFFF790FF012239463046FEF767FBE2
:10418000FFF789FF6006040E49463046FEF752FBF2
:10419000012801D144F001046D1C082DE4DB11203D
:1041A000019069463046FEF721FA00223946304632
:1041B000FEF74DFBB8F1000F02D0FFF74CFF01E016
:1041C000FFF79EFF05B02046BDE8F0832DE9F041E2
:1041D000054600244FF400784FF480764FF0904766
:1041E000002231463846FEF732FBFFF754FF28061F
:1041F00001D5012200E0002241463846FEF727FBA8
:104200006806050EFFF747FF012231463846FEF7E4
:104210001EFBFFF740FF641C082CE1DB31463846EB
:10422000BDE8F0410022FEF712BB70B50122540236
:104230004FF0904521462846FEF709FB0122160261
:1042400031462846FEF703FBFFF725FF00222146F3
:104250002846FEF7FCFAFFF71EFF002231462846EB
:10426000FEF7F5FABDE87040FFF715BF70B54FF4E3
:1042700000744FF09045002221462846FEF7E7FAE9
:10428000012211022846FEF7E2FAFFF704FF01229D
:1042900021462846FEF7DBFABDE87040FFF7FBBE7B
:1042A00070B5012254024FF0904586B02146284651
:1042B000FEF7CDFA0122160231462846FEF7C7FA6C
:1042C000FFF7E9FE14216846FCF727FA0020CDE944
:1042D00000400120029069462846FEF787F92146F2
:1042E0002846FEF7A7FA0446002231462846FEF784
:1042F000AEFAFFF7D0FE1120019069462846FEF77E
:1043000075F914B1012006B070BD0020FBE7000074
:1043100010B586B014216846FCF7FFF92A48C16C35
:1043200041F00201C164C06C284C00F0020005900D
:104330001020009001200190029000200390694617
:104340002046FEF753F9002210212046FEF77FFA9F
:10435000FFF7AAFE80216B2000F0C7F86420FEF76B
:1043600033F900216B2000F0C0F8032000F089F839
:10437000002000F081F8322000F0A0F80021382061
:1043800000F0B3F800216A2000F0AFF800212320EC
:1043900000F0ABF88021372000F0A7F8752000F07E
:1043A00017F8682802D0012006B010BD01216B204B
:1043B00000F09BF800216C2000F097F8322000F00C
:1043C0007DF80020F0E700000010024000040048E3
:1043D00010B50446FFF729FFD020FFF7F7FEFFF7DF
:1043E0005FFF2046FFF7F2FEFFF75AFFFFF71DFFC2
:1043F000D120FFF7EBFEFFF753FF0020FFF799FEF8
:104400000446FFF733FF204610BD00002DE9F041C0
:104410001D4614460F460646FFF707FF7006000EBE
:10442000FFF7D4FEFFF73CFF20B1FFF71FFF01208D
:10443000BDE8F0813846FFF7C9FEFFF731FFFFF70F
:10444000F4FE012000EB4600C0B2FFF7BFFEFFF70D
:1044500027FF09E0012C0DD05FF00100FFF769FE96
:10446000641E05F8010BE4B2002CF3D1FFF7FEFE49
:104470000020DDE70020F1E7C006010E1C2000F05F
:1044800034B8C006010E1B2000F02FB8BC2801D3A1
:10449000012110E0622801D302210CE02A2801D377
:1044A000032108E0142801D3042104E00A2801D3E1
:1044B000052100E006211A2000F017B810B50446C7
:1044C0004FF47A70844201D9044602E0042C00D2F1
:1044D0000424B0FBF4F0401EC1B2192000F005F82E
:1044E0006008BDE81040FFF7D1BF70B50C46054627
:1044F000FFF79BFED020FFF769FEFFF7D1FE50B912
:104500002846FFF763FEFFF7CBFE2046FFF75EFE6F
:10451000FFF7C6FE18B1FFF7A9FE012070BDFFF737
:10452000A5FE002070BD2DE9F0411E4615460F4640
:104530000446FFF77AFE6006000EFFF747FEFFF71E
:10454000AFFE60B93846FFF741FEFFF7A9FE002431
:104550000CE0305DFFF73AFEFFF7A2FE20B1FFF757
:1045600085FE0120BDE8F081641CE4B2AC42F0D3CA
:10457000FFF77CFE0020F5E730B58BB000240894EF
:104580000994202168460A94FCF7C7F828484FF0A0
:10459000A041042501604FF40031C0E90114856198
:1045A0000121C460C0E9044104774177032202621B
:1045B00080F82440C462046380F83810C46380F833
:1045C0004040FDF7AFFC08B1FDF7E4F908A9184831
:1045D0000894FDF72BFA08B1FDF7DCF915480090B7
:1045E00006200190022002907F200594CDE903056A
:1045F00069460F48FDF786FA08B1FDF7CBF90E487A
:1046000000900C20019069460948FDF77BFA08B13B
:10461000FDF7C0F90948009012200190694604484E
:10462000FDF770FA002801D0FDF7B4F90BB030BDEA
:10463000D80B002002003004040060080040C03A9B
:10464000194808B5816C41F004018164816C01F066
:1046500004010091816C41F002018164816C01F0E0
:1046600002010091816C41F001018164806C0022A3
:1046700000F00100009011460B20FEF753F90B20CB
:10468000FEF742F9002211463820FEF74BF9382098
:10469000FEF73AF9002211463920FEF743F9BDE84A
:1046A00008403920FEF730B9001002402DE9F043F0
:1046B00087B014216846FCF730F84548C16C41F0DA
:1046C0000401C164C16C01F004010591C16C41F0A9
:1046D0002001C164C16C01F020010591C16C41F061
:1046E0000101C164C16C01F001010591C16C41F08F
:1046F0000201C164C06C4FF0904900F002000590C7
:10470000012204214846FEF7A2F8DFF8C880012202
:1047100049F207614046FEF79AF846F22006002269
:1047200031464046FEF793F84FF4184700223946C9
:104730004846FEF78CF800244FF40050CDE9000401
:10474000694625480294FDF751FF01250420CDE973
:104750000005CDE9025469464846FDF747FF1020A1
:10476000CDE90004694648460294FDF73FFF41F257
:104770000740CDE900050320CDE9024069464046E7
:10478000FDF734FFCDE900650226CDE902646946F4
:104790004046FDF72BFF4FF40240CDE90005CDE97F
:1047A000025469464046FDF721FFA8028DE831001A
:1047B00069464846FDF71AFFCDE90264CDE9007568
:1047C00069464846FDF712FF07B0BDE8F0830000D8
:1047D000001002400004004800080048124810B5CC
:1047E000104901604FF48271416000214FF4E06292
:1047F000C0E902124FF400720161C0E905121822EB
:10480000C0E9072107224162C0E90A12016341633E
:10481000FEF73EFE002803D0BDE81040FDF7BAB811
:1048200010BD000000300140A40C0020184810B555
:10483000164901604FF461214160002181600C2222
:10484000C160C0E904128161C1610162416281629B
:10485000FFF7CAF908B1FDF79DF800210C48FFF7F2
:104860002AF808B1FDF796F800210948FEF7FDFF88
:1048700008B1FDF78FF80648FEF7D6FF002803D0F1
:10488000BDE81040FDF786B810BD000000380140BB
:10489000540D0020184810B5164901604FF46121ED
:1048A0004160002181600C22C160C0E90412816175
:1048B000C161016241628162FFF796F908B1FDF7BB
:1048C00069F800210C48FEF7F6FF08B1FDF762F821
:1048D00000210948FEF7C9FF08B1FDF75BF806485B
:1048E000FEF7A2FF002803D0BDE81040FDF752B844
:1048F00010BD000000440040E40D0020FEE7FEE78C
:10490000704700002DE9F047244CA17A2046DFF8DB
:1049100090900126C07A4FF4007801292FD0022907
:104920002BD1811DCAB2891DCBB220731D49627380
:10493000A37301F110050F8825F81070088925F878
:104940001200888825F81300012241464846FDF7E9
:104950007EFFE07A401CC0B2E07206280CD3002033
:10496000E07205F1A60100BF35F8102001EB40030D
:10497000401C5A821228F7DBA672BDE8F08700F0CF
:1049800061F8002241464846FDF761FF2078002883
:10499000F2D126700220A072EFE700000000002094
:1049A000000400485C0000200148FEF7F3BC000052
:1049B000A40C002010B5806A0021A0F84610C18721
:1049C000FEF7DCFC10BD70472DE9F04101221C4DC3
:1049D0000446160331462846FDF739FF01229702A7
:1049E00039462846FDF733FF012204212846FDF70A
:1049F0002EFF012202212846FDF729FF0122114640
:104A00002846FDF724FF062C17D2DFE804F0160332
:104A100006090C0F002231460AE00022394607E061
:104A20000022042104E00022022101E000220121F1
:104A30002846BDE8F041FDF70ABFBDE8F08100005F
:104A4000000400482DE9F0414FF480514D104E0014
:104A50001B4F4FF09044062830D2DFE800F00305EA
:104A60000D13191F01220EE0002206E02946204600
:104A7000FDF7EDFE00221BE001222046FDF7E7FED8
:104A80000022F3E700222046FDF7E1FE0122EDE7D8
:104A900000222046FDF7DBFE002204E00022204633
:104AA000FDF7D5FE012229462046FDF7D0FE012262
:104AB00031463846BDE8F041FDF7C9BEBDE8F0819A
:104AC00000040048FDF7CEBE10B594B0382168460A
:104AD000FBF723FE14210EA8FBF71FFE4FF4007016
:104AE000FDF752FF012000900004019002200324F2
:104AF000CDE907041C21CDE909010B900C900D9024
:104B00006846FEF735FA08B172B6FEE70F20CDE928
:104B10000E04002010901190129003210EA8FEF7B1
:104B2000DDF8002801D072B6FEE714B010BD000019
:104B30000248016841F470010160704788ED00E0AF
:104B40000148FEF76FBD0000080D002030B5416E32
:104B5000B9B1026891689268C1F342610B4B520F80
:104B60009C5CE50003F10804A25CB5FBF2F2A0F83E
:104B70006A205A5C615CD200B2FBF1F1A0F86810C7
:104B800030BD0121A0F86A10F8E70000AC760008FB
:104B900090F82810C90706D001684A68C36A22F451
:104BA00000321A434A6090F82810890706D5016838
:104BB0004A68036B22F480321A434A6090F8281046
:104BC000490706D501684A68436B22F480221A43DC
:104BD0004A6090F82810090706D501684A68836B77
:104BE00022F400421A434A6090F82810C90606D5FC
:104BF00001688A68C36B22F480521A438A6090F875
:104C00002810890606D501688A68036C22F40052D0
:104C10001A438A6090F82810490611D501684A683D
:104C2000436C22F480121A434A60416CB1F5801F34
:104C300006D101684A68836C22F4C0021A434A60B4
:104C400090F82810090606D501684A68C06C22F45D
:104C5000002202434A607047F8B500260446C0F8B7
:104C60008C60FDF7F9FD0546206800686FF07E470F
:104C7000000708D52B4600224FF40011204600976C
:104C800000F090FC60B92068006840070AD52B4608
:104C900000224FF480012046009700F083FC08B109
:104CA0000320F8BD2020C4F88400C4F8880044F82C
:104CB0006C6F00202675F8BD10B5806A0021A0F841
:104CC0005E10A0F85610FEF71EFE10BD70B5846A87
:104CD000D4F88400D4F88850216889684FF0000621
:104CE000090606D5212804D1A4F85660204600F014
:104CF00065F820688068400606D5222D04D1A4F806
:104D00005E60204600F030F8D4F88C0040F01000CF
:104D1000C4F88C002046FEF7F6FD70BD10B50146C4
:104D2000806A09680968890616D40021A0F856101F
:104D30000168083151E8002F22F0800241E8002389
:104D4000002BF5D1026852E8001F41F0400142E813
:104D50000013002BF6D110BDFFF738F910BD10B5C8
:104D6000806AFFF745F910BD10B5026852E8001FD0
:104D700021F4907142E80013002BF6D10E4B02682B
:104D8000083252E8001F194042E80014002CF6D106
:104D9000C16E012908D1016851E8002F22F01002EC
:104DA00041E80023002BF6D12021C0F88810002113
:104DB000C166016710BD0000FEFFFFEF026852E808
:104DC000001F21F0C00142E80013002BF6D101685A
:104DD000083151E8002F22F4000241E80023002BA3
:104DE000F5D12021C0F88410704710B5B0F86020CC
:104DF000D0F888300168222B04D0886940F0080080
:104E0000886110BD496A836D11401980816D891CCC
:104E10008165B0F85E10491EA0F85E10B0F85E1013
:104E20000029EED1026852E8001F21F4907142E897
:104E30000013002BF6D10168083151E8002F22F051
:104E4000010241E80023002BF5D12021C0F8881091
:104E500000210167C26E012A02D0FEF7DDFF10BDFE
:104E6000C166026852E8001F21F0100142E80013F9
:104E7000002BF6D10168CA69D243D20601D41022B0
:104E80000A62B0F85C10FEF7EEFC10BD2DE9F047A9
:104E90000446B0F860600068C569D0F800A0D0F89A
:104EA0000880D4F88810222905D0816941F00801D2
:104EB0008161BDE8F087B4F868704FF0000963E0E5
:104EC0002068406AA16D30400880A06D801CA065FC
:104ED000B4F85E00401EA4F85E002068C56969074A
:104EE00030D0E9070AD05FEACA5107D50121016233
:104EF000D4F88C0040F00100C4F88C00A8070BD552
:104F00005FEAC87008D0216802200862D4F88C00DB
:104F100040F00400C4F88C0068070BD55FEAC87045
:104F200008D0216804200862D4F88C0040F0020008
:104F3000C4F88C00D4F88C0020B12046FEF7E3FCC6
:104F4000C4F88C90B4F85E00F0B9216851E8000F05
:104F500020F4807041E80002002AF6D1264A206839
:104F6000083050E8001F114040E80013002BF6D134
:104F70002020C4F88800C4F87090E16E48460129EA
:104F800023D02046FEF748FF0FB1A80698D4B4F806
:104F90005E0000288DD0B4F86810814289D920685D
:104FA000083050E8001F21F0805140E80012002A2C
:104FB000F5D112482067206850E8001F41F0200119
:104FC00040E80012002AF6D173E7E066216851E854
:104FD000000F20F0100041E80002002AF6D12068FE
:104FE000C169C943C90601D410210162B4F85C103B
:104FF0002046FEF738FCC7E7FEFFFFEFEB4D000849
:1050000010B5B0F86020D0F888300168222B04D0A9
:10501000886940F00800886110BD496A1140826DBE
:105020001170816D491C8165B0F85E10491EA0F8B1
:105030005E10B0F85E100029EED1026852E8001F41
:1050400021F4907142E80013002BF6D10168083179
:1050500051E8002F22F0010241E80023002BF5D196
:105060002021C0F8881000210167C26E012A02D0F9
:10507000FEF7D2FE10BDC166026852E8001F21F0A3
:10508000100142E80013002BF6D10168CA69D2432F
:10509000D20601D410220A62B0F85C10FEF7E3FBDE
:1050A00010BD00002DE9F0470446B0F860600068CC
:1050B000C569D0F800A0D0F80880D4F8881022295B
:1050C00005D0816941F008018161BDE8F087B4F83D
:1050D00068704FF0000963E02068406AA16D3040BD
:1050E0000870A06D401CA065B4F85E00401EA4F8D6
:1050F0005E002068C569690730D0E9070AD05FEA19
:10510000CA5107D501210162D4F88C0040F001009A
:10511000C4F88C00A8070BD55FEAC87008D02168D6
:1051200002200862D4F88C0040F00400C4F88C001F
:1051300068070BD55FEAC87008D0216804200862B0
:10514000D4F88C0040F00200C4F88C00D4F88C0035
:1051500020B12046FEF7D7FBC4F88C90B4F85E006F
:10516000F0B9216851E8000F20F4807041E8000296
:10517000002AF6D1264A2068083050E8001F114066
:1051800040E80013002BF6D12020C4F88800C4F8B2
:105190007090E16E4846012923D02046FEF73CFE80
:1051A0000FB1A80698D4B4F85E0000288DD0B4F8EA
:1051B0006810814289D92068083050E8001F21F02A
:1051C000805140E80012002AF5D11248206721687A
:1051D00051E8000F40F0200041E80002002AF6D11B
:1051E00073E7E066216851E8000F20F0100041E805
:1051F0000002002AF6D12068C169C943C90601D45A
:1052000010210162B4F85C102046FEF72CFBC7E7C2
:10521000FEFFFFEF015000082DE9F0410446016850
:1052200080682269E3691043626900251A431043CC
:10523000DFF82CC20A688B4B1A4002430A602068D0
:105240004168E26821F44051114341602168A0693E
:10525000614501D0226A10438A68834B1A40024399
:105260008A602068C16A626A21F00F011143C1623D
:105270007E4923687E488B420DD1D0F8880010F01B
:10528000030006D0012855D0022842D003283FD180
:1052900052E001203DE077498B420BD1D0F88800E5
:1052A00010F00C0035D0042833D0082840D00C284A
:1052B0002ED141E070498B420BD1D0F8880010F01C
:1052C000300026D0102835D0202831D030281FD1EA
:1052D00032E06A498B420BD1D0F8880010F0C00050
:1052E00017D0402826D0802822D0C02810D123E013
:1052F00063450DD1D0F8880010F4406009D0B0F5B6
:10530000806F17D0B0F5006F12D0B0F5406F13D09A
:1053100010205B495B4F00264FF4004263453BD1B0
:1053200060B1022813D004280BD0082872D10DE0F8
:105330000220EEE70420ECE70820EAE7FDF7BCFDD9
:1053400001E0FDF7DDFD010001D17CE01146606A5E
:1053500037F810206768B1FBF2F007EB4703834290
:1053600070D8B0EB073F6DD8002308461946FAF70E
:10537000B3FF090241EA1061020278081018714176
:105380003A460023FAF7A8FF3F4AA0F54071914240
:1053900058D82168C86056E0E3694FF6EF78934229
:1053A0002CD109284ED2DFE800F00508114D0D4D33
:1053B0004D4D1000FDF780FD01E0FDF78FFD010070
:1053C00004D140E0FDF79CFDF9E71146606A37F82B
:1053D0001000B1FBF0F04100606801EB5001B1FB3F
:1053E000F0F0A0F1100141452CD84FF6F0710140CA
:1053F000C0F3420001432068C16024E0092821D2A3
:10540000DFE800F0050912200E2020201100FDF732
:1054100053FD02E016E0FDF761FD010004D112E04A
:10542000FDF76EFDF9E71146606A37F81000B1FB31
:10543000F0F1606801EB5001B1FBF0F0A0F1100158
:1054400041450AD901250120A4F86A0024F8680F13
:105450002846A660E660BDE8F08180B299E70000CA
:1054600000800040F369FFCFFFF4FF1100380140D6
:10547000001002400044004000480040004C004042
:105480000024F40094760008FFFC0F0070B58165DD
:10549000A0F85C20A0F85E200021016783684FF42B
:1054A0008055FF24AB4204D10369FBB940F2FF13DE
:1054B00022E07F26C3B1B3F1805F1AD0A0F860105C
:1054C000C0F88C102223C0F888300368083353E8F2
:1054D000004F44F0010443E80046002EF5D1436E2E
:1054E000B3F1005F0ED032E0036943B9A0F8604029
:1054F000E6E703691BB13F23A0F86030E0E7A0F8BE
:105500006060DDE7B0F86830934220D88268AA4234
:1055100001D10269CAB11F4A026780F8801001698F
:1055200041B1026852E8001F41F4807142E8001363
:10553000002BF6D10168083151E8002F42F080526B
:1055400041E80023002BF5D121E0134AE4E782680B
:10555000AA4201D102697AB1104A026780F880102C
:10556000016959B1026852E8001F41F4907142E8A4
:105570000013002BF6D10AE0094AEEE7026852E870
:10558000001F41F0200142E80013002BF6D100205B
:1055900070BD0000A55000088D4E000801500008A5
:1055A000EB4D00082DE9F0479A4617460E46044693
:1055B0004FF000094FF02008089D4AE0681C48D0D1
:1055C000FDF74AF9A0EB0A00A8422AD84DB320689B
:1055D000016849073DD5C069C043000539D4216839
:1055E0004FF400600862206850E8001F21F4D07179
:1055F00040E80012002AF6D12068083050E8001F69
:1056000021F0010140E80012002AF5D144F8848F0E
:10561000C4F80480C4F8088004F8049C0320BDE8A2
:10562000F087216851E8000F20F4D07041E80002B3
:10563000002AF6D12068083050E8001F21F001014F
:1056400040E80012002AF5D144F8848FC4F80480A1
:10565000E2E72068C06936EA000004D00020B842C2
:10566000ACD00020DBE70120F9E700000148FEF79D
:105670004BB90000540D00200148FEF745B9000069
:10568000E40D0020FEE703B401984100009850EAC1
:10569000C12018BF04204A0D18BF40F0010040F29D
:1056A000FF72B2EB515F08BF40F00200012808BF53
:1056B000052002B070470907090E002804DB00F13D
:1056C000E02080F80014704700F00F0000F1E020A7
:1056D00080F8141D704730380A2801D20120704725
:1056E00000207047FEB506460D460024684600F0CF
:1056F000E7FC00229FED1B1A6B46012156F8227031
:1057000055F82200381A00D5404200EE100A03EB8B
:105710008200B8EEC00AD0ED000A20EE010AF5EED4
:10572000C00AF1EE10FA0DD0C0EE201AB7EE000A52
:105730000D4F31EEC00AB0EEC00A10EE100AB842AA
:1057400007DC09E010EE100A084F3844084FB84251
:1057500002D301FA02F00443521C032ACEDB204696
:10576000FEBD000000008037295C0F3E666666C102
:105770009A99D90000EE100ADFED190A10B5B8EEBB
:10578000400A194C20EE200ADFED160A20EE200A0E
:1057900010EE100AA04201DB9FED140ADFED140A9F
:1057A0009FED141A00EE201ADFED130A70EEC01AF6
:1057B000C1EE210A9FED111AF5EEC00AF1EE10FAC2
:1057C00003DDF7EE001A81EEA01A09B181ED000A9F
:1057D0000AB1C2ED000A002B01D083ED001A10BD02
:1057E0003333534000008039A47099407368994066
:1057F0003333354221B0E040A470994000000000EE
:1058000008B560B120208DF8000028208DF8010037
:1058100030208DF8020038208DF8030004E0A32228
:1058200004216846FAF771FF6A46042140F69E207B
:1058300001F04AFD01F008FA08BD00003EB504463B
:1058400002208DF80000CA208DF80100E3208DF8B9
:10585000020009208DF803006A460421682001F047
:1058600033FDA3208DF80000610609D5C0218DF815
:105870000110C8218DF80210C2218DF8031005E037
:105880008DF801008DF802008DF8030014F4C07F3C
:1058900009D0C4218DF80410CC218DF80510C62143
:1058A0008DF8061005E08DF804008DF805008DF8E0
:1058B00006008DF808008DF807008DF809006A468B
:1058C0000A2140F6A72001F0FFFCA0074FF0D80501
:1058D00003D020208DF8000001E08DF800506A46CA
:1058E000012140F6B62001F0EFFCA00601D5012011
:1058F00000E0002000F08EF814F4C07F1ED0E00518
:105900000AD5B2208DF800008B208DF80100B6205A
:105910008DF802009B2009E0B0208DF80000802067
:105920008DF80100B4208DF8020090208DF803005E
:105930006A46042140F6A22001F0C6FCE1074FF4BC
:105940000B6022D0F8218DF800106A46012101F089
:10595000BBFCFA21072000F097FA072000F062FA5A
:10596000012000F07FFA642000F03EFB4FF4FA7053
:1059700000F04AFBC821254800F01CFA282000F05E
:1059800031FA0A2000F03EFA05E08DF800506A4630
:10599000012101F099FCA00703D5D9208DF8000062
:1059A00001E08DF800506A46012140F23D7001F09F
:1059B0008BFC600701D5012000E0002000F048F8D2
:1059C000E00601D5012000E00020FFF719FF104D8F
:1059D00044F00800688101F037F90020A8736006E0
:1059E00001D50620A87314F4C07F02D0A87B801DC7
:1059F000A87314F0140F02D0A87B1030A873A0076E
:105A000002D0A87B001DA87300203EBD09E3CA0296
:105A1000340F00200EB54FF4976310B106A107C9EB
:105A200001E008A207CA8DE807006A460921184666
:105A300001F04AFC0EBD0000B8AAB38DB4980D3534
:105A40005D000000B8AAAAAAB088C3C5C7000000BC
:105A500008B560B1C0208DF80000C2208DF80100AB
:105A6000C4208DF80200C6208DF8030004E08B22CC
:105A700004216846FAF749FE6A46042140F6982058
:105A800001F022FC01F0E0F808BD0000C8234FF44B
:105A90008062024940F6F63001F000B82477000831
:105AA0002DE9FF41044603A800F0C2FEBDF80C003A
:105AB000410CC3032F48028902F00300550754F834
:105AC000200000D54042C2F3C105960654F8255087
:105AD00000D56D42C2F38116D20554F8264000D598
