:020000040000FA
:100000000C94020F0C94330F0C94330F0C94330F99
:100010000C94330F0C94330F0C94330F0C94330F58
:100020000C94330F0C94330F0C94330F0C94330F48
:100030000C94330F0C94330F0C94330F0C94330F38
:100040000C94330F0C94330F0C94330F0C94330F28
:100050000C94330F0C94330F0C94330F0C946820D2
:100060000C94330F0C943C210C9412210C94330FFC
:100070000C94330F0C94330F0C94330F0C94330FF8
:100080000C94330F0C94330F0C94330F0C94330FE8
:100090000C94DC200C94B2200C94330F0C94330F8E
:1000A0000C94330F0C94330F0C94330F0C94330FC8
:1000B0000C94330F0C94330F0C94330F0C94330FB8
:1000C0000C94330F0C94330F0C94330F0C94330FA8
:1000D0000C94330F0C94330F0C94330F0C94330F98
:1000E0000C94330F0C94B5150C9408110C94C21594
:1000F0000C942E120C9401120C943D120C947D2140
:100100000C9462140C9474130C9435110C943911E2
:100110000C94E0150C94A1150C94F4160C94EC16A8
:100120000C943F110C941D110C94DB130C94511280
:100130000C946E130C9409130C94A1120C941011CE
:100140000C943C150C9404110C9413110C94D013C2
:100150000C94FD150C9443110C943E110C948F15C6
:100160000C94FE100C94A5130C940D160C945F12B5
:100170000C9423110C940C110C9431110C942B1130
:100180000C9419110C9427110C94E6130C9412146E
:100190004E414E494E495459494E46CDCCCC3D0A6C
:1001A000D7233C17B7D13877CC2B329595E6241F4F
:1001B000B14F0A000020410000C84200401C462008
:1001C000BCBE4CCA1B0E5AAEC59D745B465245451B
:1001D0005D20E689ADE79FA9E585B3E997ADEFBC62
:1001E0008CE887AAE794B1E8B79FE99A8F28E5AE33
:1001F0008CE585A8E697A0E794B529005B465245B3
:10020000455D20E689ADE79FA9E5BC80E590AFEFAD
:10021000BC8CE681A2E5A48DE68EA7E588B6001029
:1002200026000239660002417E0002FF0000001035
:100230002600021A3800011B3900011C3A0001395E
:10024000660002417E000256980002579A0002584A
:100250009C0002FF000000102600023966000241E7
:100260007E0002FF0000003F7E0002FF0000001041
:100270002600021428000439660002417E0002FFB5
:10028000000000142800043F7E0002FF0000000769
:100290000A00014B4400024E46000138470002FFAD
:1002A0000000004B4400024E46000138470002FFA8
:1002B000000000FF00000000000002010200040234
:1002C000060001040700014F080002050A000106AC
:1002D0000C00011F0D00011E0F0001271000010777
:1002E000200001092100015A2200015B2600025C66
:1002F0002800045D2C000417300004163400045E4E
:100300003800015F3900010E3C00020D3E00020F73
:10031000400002104200021444000411480004127C
:100320004C00041354000460600004616400046223
:10033000680002636A0002646C0002656E00016678
:100340006F00016770000268840002698600026A1B
:100350008800026B8A00026C9800016D9900016EA2
:100360009A00016FAA00012AD4000429D800042FA2
:10037000DC00042DE000042CE400042BE800042E33
:10038000EC000450F0000451F4000470F800047113
:10039000FC00042200020123010201720402027324
:1003A00006020274080204370C0202390E02023BF4
:1003B0001002043A140204521D02014D1E02023EB4
:1003C0002002024122020243240204422802045471
:1003D0003002045334020455380202453A020175D2
:1003E0003B0204FF000000000000020102000402C2
:1003F00006000104070001060800011F09000107AB
:100400000A0001090B0001050C0001161400041775
:100410001800040C1F00010E2000020D2200020F24
:100420002400021026000214280004112C000412DB
:10043000300004133400041A3800011B3900011C79
:100440003A00011D3B0001213F000122000201246E
:1004500001020125020201260302011E04020127F6
:10046000050201280602012A0C0202290E02022DB1
:100470001002022C1202022B1402022F1802022E6A
:100480001A02024F22020237240202392602023BDC
:10049000280204502C0204513002043A3402044D64
:1004A000380202483A0201523B02013E3C0202413C
:1004B0003E020243400204424402045348020454F0
:1004C0004C0204555002024552020156580202578E
:1004D0005A0202585C0202595E0202FF000000004C
:1004E00000000201020004020600010407000106E8
:1004F0000800011F090001090B0001160D00041777
:100500001100040C1500010E1600020D1800021453
:100510001A0004461E0002112000041224000413D5
:100520002800041A2C00011B2D00011C2E00011DA7
:100530002F00012130000122320201243302012563
:10054000340201263502012A4A0202294C02022BFA
:100550005202023A5402043B580204385C02023C44
:100560005E020448620201426302044367020441DE
:100570006D0202556F020245710201567202025766
:100580007402025876020259780202277A03011E89
:100590007B0301287C0301FF000000000000020231
:1005A00002000104030001060400011F0500010A06
:1005B0000600020B080002080B00010C0C00010DE4
:1005C0000D00010E0E0001150F00021E1100012189
:1005D0001200012218000123190001321B00013111
:1005E0001C0001301D00013A1E00023D20000246A1
:1005F00023000242250002402700023F2900024456
:100600002D0001452E0001472F000148310001282F
:100610003200014A330002FF000000000000020126
:100620000200040206000104070001060800011F81
:10063000090001070A0001090B0001050C00010374
:100640000D000116140004171800040C1F00010E01
:100650002000020D2200020F240002112C000412BF
:1006600030000413340004213F0001224000012324
:100670004100011E44000127450001284600012ACF
:100680004C0002294E00022D5000022C5200022B79
:100690005400022F5800022E5A00024F6200023707
:1006A0006400023B680004506C0004517000043A7E
:1006B0007400044D780002487A0001527B00013E2C
:1006C0007C000243800004428400045388000454E8
:1006D0008C00045590000245920001FF00000000CC
:1006E0000000020202000104030001060400011FD1
:1006F0000500010A0600020B0800020C0B00010DA8
:100700000C00010E0D0001150E00021E100001204C
:100710001100012112000118140002191600012213
:1007200018000123190001321A0001311B000130A9
:100730001C00013A1E00023D200002462200024237
:10074000240002402600023F280002442A000145FE
:100750002B0001472C0001482E0001492F00014ABF
:100760003000024D3200023C490001FF0000000051
:100770000000020202000104030001060400011F40
:100780000500010A0600020B0800020C0B00010D17
:100790000C00010E0D0001150E00021E10000120BC
:1007A0001100012112000122180001231900013358
:1007B0001A0001341B0001351C0001361D00013AEE
:1007C0001E00023D20000246220002422400024098
:1007D0002600023F280002442A0001452B00014761
:1007E0002C0001482E0001492F00014A300002FF71
:1007F000000000000005800F800A001B801E00140E
:10080000001180338036003C00398028002D80277D
:10081000802200638066006C00698078007D8077AC
:10082000807200500055805F805A004B804E00441B
:10083000004180C380C600CC00C980D800DD80D7CD
:1008400080D200F000F580FF80FA00EB80EE00E43B
:1008500000E180A000A580AF80AA00BB80BE00B4EC
:1008600000B180938096009C00998088008D8087DD
:10087000808200838186018C01898198019D819706
:10088000819201B001B581BF81BA01AB81AE01A4F3
:1008900001A181E001E581EF81EA01FB81FE01F424
:1008A00001F181D381D601DC01D981C801CD81C795
:1008B00081C201400145814F814A015B815E015443
:1008C000015181738176017C01798168016D8167B5
:1008D000816201238126012C01298138013D813764
:1008E000813201100115811F811A010B810E010453
:1008F000010181038306030C03098318031D831779
:10090000831203300335833F833A032B832E032462
:10091000032183600365836F836A037B837E037493
:10092000037183538356035C03598348034D834704
:10093000834203C003C583CF83CA03DB83DE03D4B2
:1009400003D183F383F603FC03F983E803ED83E724
:1009500083E203A383A603AC03A983B803BD83B7D3
:1009600083B203900395839F839A038B838E0384C2
:10097000038183800285828F828A029B829E0294F9
:10098000029182B382B602BC02B982A802AD82A7EC
:1009900082A202E382E602EC02E982F802FD82F71B
:1009A00082F202D002D582DF82DA02CB82CE02C48A
:1009B00002C182438246024C02498258025D82573C
:1009C000825202700275827F827A026B826E0264AA
:1009D000026182200225822F822A023B823E02345B
:1009E000023182138216021C02198208020D82074C
:1009F00082020200002100240027002A002D00307E
:100A000000330001010000040107010A01203A201F
:100A10004641494C202D20E6A380E69FA5E68EA501
:100A2000E7BABF2F49442FE6B3A2E789B9E78E871B
:100A300000203A204F4B002028E69CAAE6A087E53C
:100A4000AE9A2129002C206B4E5F7065725F6D415C
:100A50003D00E5889DE5A78B20486F6D653D000052
:100A6000504F533A3C703E202020202D20E7A7BB5A
:100A7000E58AA8E588B0E4BD8DE7BDAE00544553D6
:100A800054202020202020202D20E6B58BE8AF9593
:100A9000E7A7BBE58AA800494E464F20202020202A
:100AA00020202D20E698BEE7A4BAE68980E69C893E
:100AB000E58F82E695B0004449523A3C2B317C2DBB
:100AC000313E202D20E79BB4E68EA5E8AEBEE7BD03
:100AD000AEE68EA7E588B6E696B9E59091282B316B
:100AE0003DE9BB98E8AEA42C2D313DE58F8DE59016
:100AF0009129004449525245565B3A4F4E7C3A4F39
:100B000046465D202D20E68EA7E588B6E696B9E537
:100B10009091E58F8DE8BDACE5BC80E585B328E616
:100B20009CBAE6A2B0E8A385E9858DE79BB8E58F7E
:100B30008DE697B6E4BDBFE794A829004E4C543A21
:100B40003C4E3E202020202D20E8AEBEE7BDAEE684
:100B500097A0E8BDBDE99888E580BC28E981BFE59C
:100B6000858DE599AAE5A3B0E58AA8E4BD9C29EFA7
:100B7000BC8CE9BB98E8AEA4302E30384E00494C0E
:100B8000494D3A3C6D413E20202D20E8AEBEE7BDE8
:100B9000AEE794B5E6B581E99990E588B60053547F
:100BA00045503A3C703E2020202D20E8AEBEE7BDE7
:100BB000AEE6ADA5E8BF9BE9878F004859533A3CA4
:100BC000683E202020202D20E8AEBEE7BDAEE8BF65
:100BD0009FE6BB9EE5B8A6284E29004B4E3A3C63E3
:100BE0006F65663E20202D20E79BB4E68EA5E8AE1B
:100BF000BEE7BDAEE68DA2E7AE97E7B3BBE695B024
:100C00000043414C3A3C4E3E202020202D20E6A0BF
:100C100087E5AE9A3A20E5BD93E5898DE58F97E5A6
:100C20008A9BE4B8BA3C4E3EE7899B00484F4D454D
:100C3000202020202020202D20E9878DE7BDAEE94F
:100C40009BB6E4BD8D0043414C4D494E3A3C6D414D
:100C50003E202D20E8AEBEE7BDAE43414CE69C8071
:100C6000E5B08FE794B5E6B581E99888E580BC2CBE
:100C700020E9BB98E8AEA4326D412028E599AAE5A9
:100C8000A3B0E5A4A7E58FAFE8B083E5A4A729004A
:100C9000484F4C445B3A4F4E7C3A4F46465D202DC0
:100CA00020E6A087E5AE9A2FE794A8E58A9BE6B5F3
:100CB0008BE8AF95E59BBAE5AE9AE5BD93E5898DE6
:100CC000E4BD8DE7BDAEEFBC8CE585B3E997ADE83B
:100CD00087AAE58AA8E887AAE794B12FE8B79FE931
:100CE0009A8F2FE5AFBBE8A7A6004155544F465257
:100CF00045455B3A4F4E7C3A4F46465D202D20E8F5
:100D000087AAE58AA8E887AAE794B1E6A8A1E5BC86
:100D10008FEFBC9A4E3D3020E4B894E69CAAE8A739
:100D2000A6E691B8E697B6E887AAE58AA8E689AD6F
:100D3000E79FA9E585B3E997AD28E9BB98E8AEA49C
:100D40004F4E2900465245455B3A4F4E7C3A4F463E
:100D5000465D202D20E6898BE58AA8E8BF9BE585C6
:100D6000A52FE98080E587BAE887AAE794B1E6A8CD
:100D7000A1E5BC8F28E689ADE79FA9E585B3E99792
:100D8000AD29005345454B4D41583A3C6E3E202D10
:100D900020E8AEBEE7BDAEE4B8BBE58AA8E5AFBBD0
:100DA000E8A7A6E69C80E5A49AE6ADA5E695B0EF97
:100DB000BC8CE9BB98E8AEA43330005345454B5B8F
:100DC0003A4F4E7C3A4F46465D202D20E59CA8E6E2
:100DD00097A0E8BDBDE697B6E4B8BBE58AA8E7A74B
:100DE000BBE58AA8E4BBA5E5AFBBE689BEE79BAE41
:100DF000E6A087E58A9B28E58DB1E999A9EFBC9A21
:100E0000E6B3A8E6848FE99990E4BD8D2900545299
:100E10004154453A3C6E3E20202D2052414D50E633
:100E2000A8A1E5BC8FE4B88BE7BABFE680A7E5A22E
:100E30009EE58A9BE9809FE78E87284E2F7329EFD6
:100E4000BC8CE9BB98E8AEA4302E3500544D4F441D
:100E5000453A3C52414D507C444953503E202D2050
:100E6000E8A7A6E691B8E5A29EE58A9BE6A8A1E5DB
:100E7000BC8FEFBC9A52414D503DE68C89E697B647
:100E8000E997B4E7BABFE680A7E98092E5A29EEFB2
:100E9000BC8C444953503DE68C89E4BD8DE7A7BB2B
:100EA000E98092E5A29E28E9BB98E8AEA452414DA4
:100EB000502900544D41583A3C4E3E2020202D20D0
:100EC000E8A7A6E691B8E6A8A1E5BC8FE4B88B4EEA
:100ED000E79A84E4B88AE99990EFBC8CE9BB98E87A
:100EE000AEA431304E00544741494E3A3C6B3E204F
:100EF000202D20E4BD8DE7A7BB2DE58A9BE5A29EB2
:100F0000E79B8A284E2FE88489E586B229EFBC8CBE
:100F1000E9BB98E8AEA4302E303500544F55434815
:100F20005B3A4F4E7C3A4F46465D202D20E8BF9BF2
:100F3000E585A52FE98080E587BAE8A7A6E691B800
:100F4000E6A8A1E5BC8FEFBC8C4F4EE697B64EE904
:100F50009A8FE4BD8DE7A7BBE5A29EE58AA0004E6F
:100F60003A3C76616C3E202020202D20E8AEBEE782
:100F7000BDAEE79BAEE6A087E58A9B284E290053CD
:100F8000544154555320202020202D20E69FA5E7D2
:100F90009C8BE5AE9EE697B6E794B5E6B58128E66C
:100FA000A087E5AE9AE5898DE58588E794A8E8BF36
:100FB00099E4B8AA2129003D3D3D20E68980E69CC0
:100FC00089E591BDE4BBA4203D3D3D000020202DDE
:100FD00020E794A8E6898BE68B89E888B5E69CBA79
:100FE0003A20E58A9BE58F98E8B49FE28692E888EC
:100FF000B5E69CBAE6ADA3E8BDACE68AB5E68A974D
:10100000E28692E7BBB4E68C81314E0020202D2091
:10101000E69DBEE6898BE4B88DE68EA83A20E58A87
:101020009BE58F9830E28692E888B5E69CBAE4B8F2
:101030008DE4BC9AE887AAE5B7B1E58AA8EFBC8140
:101040000020202D20E794A8E6898BE68EA8E8886A
:10105000B5E69CBA3A20E58A9BE58F98E5A4A7E21D
:101060008692E888B5E69CBAE58F8DE8BDACE58749
:101070008FE5B08FE998BBE58A9BE28692E7BBB427
:10108000E68C81314E00E5AE9EE99985E69588E6CD
:101090009E9C3A00002020E6A380E6B58BE58A9B63
:1010A000203D20314E2020E2869220E888B5E69C43
:1010B000BAE4B88DE58AA8002020E6A380E6B58BC7
:1010C000E58A9B203E20314E2020E2869220E8884F
:1010D000B5E69CBAE58F8DE8BDAC28706F73697476
:1010E000696F6E2D29002020E6A380E6B58BE58A86
:1010F0009B203C20314E2020E2869220E888B5E6F5
:101100009CBAE6ADA3E8BDAC28706F736974696FD3
:101110006E2B2900E68EA7E588B6E8A784E58899B6
:10112000EFBC88E8AEBEE7BDAE4E3A31E4B8BAE4F3
:10113000BE8BEFBC893A00002020E8B49FE58A9B73
:10114000282D293A20E888B5E69CBAE8A2ABE68BC0
:1011500089E79A84E58A9B002020E6ADA3E58A9B77
:10116000282B293A20E888B5E69CBAE8A2ABE68E9F
:10117000A8E79A84E58A9B00E58A9BE5B8A6E69CE9
:1011800089E696B9E5909128E6ADA32FE8B49F29AA
:101190003A003D3D3D20E58A9BE8BFBDE99A8FE6D8
:1011A000A8A1E5BC8FE8AFB4E6988E203D3D3D0098
:1011B00000372E20E58FAFE794A820544741494ED1
:1011C0003A3C6B3E20E5928C20544D41583A3C4EBF
:1011D0003E20E8B083E695B4E5A29EE79B8AE592BF
:1011E0008CE4B88AE9999000362E20E8A7A6E6910B
:1011F000B8E69C9FE997B43A204E20E4BC9AE99A5D
:101200008FE4BD8DE7A7BBE5A29EE58AA0EFBC8C6D
:10121000E696B04E203D20E59FBAE587864E202B0E
:1012200020E4BD8DE7A7BB7469636B202A20544777
:1012300041494E00352E20E58F91E980813A2054B6
:101240004F55434820E6889620544F5543483A4F1F
:101250004E20E5BC80E590AFE8A7A6E691B8E6A8E9
:10126000A1E5BC8F00342E20E58F91E980813A20E2
:101270004E3A302028E887AAE794B1E8B79FE99A68
:101280008F2900332E20E58F91E980813A20434158
:101290004C3A312028E58187E8AEBEE5889AE68998
:1012A0008DE794A8E4BA86314EE58A9B2900322E58
:1012B00020E794A8E6898BE68EA8E888B5E69CBA74
:1012C000EFBC8CE5868DE58F91E9808120535441F8
:1012D00054555300312E20E58F91E980813A2053F7
:1012E00054415455532028E69FA5E79C8BE5BD93B8
:1012F000E5898DE794B5E6B58129003D3D3D20E5C2
:10130000BFABE9809FE5BC80E5A78B203D3D3D005C
:101310000044657845584F20584C3333302073696A
:101320006E676C652D736572766F2064656D6F20D6
:1013300072656164792E00546F7271756520456E17
:1013400061626C653A20004F7065726174696E6706
:10135000204D6F64653A200050494E472049442093
:10136000005B4552525D20556E6B6E6F776E206349
:101370006D642E0020E88489E586B2005B544553F5
:10138000545D20E5AE8CE68890202D20E7A7BBE5D4
:101390008AA8E88C83E59BB43A20002020E69C8054
:1013A000E7BB88E4BD8DE7BDAE3A200020202D3E8E
:1013B00020E59B9EE588B0E8B5B7E5A78BE4BD8D39
:1013C000E7BDAE002020E5BD93E5898DE4BD8DE746
:1013D000BDAE3A200020202D3E20E59091E8B49F3C
:1013E000E696B9E59091E7A7BBE58AA820353030AD
:1013F00020E88489E586B2002020E5BD93E5898D4B
:10140000E4BD8DE7BDAE3A200020202D3E20E590C2
:1014100091E6ADA3E696B9E59091E7A7BBE58AA86A
:101420002035303020E88489E586B2002020E8B5F8
:10143000B7E5A78BE4BD8DE7BDAE3A20005B544510
:1014400053545D20E7A7BBE58AA8E6B58BE8AF95C6
:10145000E5BC80E5A78B2E2E2E004F4646004F4E52
:101460000070726573656E745F637572286D4129D3
:10147000203D200070726573656E745F706F73201D
:101480003D2000636F6E74726F6C446972203D2062
:1014900000676F616C5F706F73203D2000686F6D37
:1014A000655F706F73203D20007365656B4D6178DB
:1014B0005374657073203D200044495350005241DD
:1014C0004D50007365656B4D6F6465203D20007461
:1014D0006F7563684469725369676E203D200074BC
:1014E0006F756368426173654E203D2000746F75AF
:1014F00063685374617274506F73203D2000746F81
:1015000075636852616D70526174654E50657253B7
:101510006563203D20004F4646004F4E00746F75B6
:1015200063684D6F646554797065203D2000746F69
:101530007563684D61784E203D2000746F75636857
:101540004761696E5F4E5F7065725F7469636B209F
:101550003D20004F4646004F4E00746F7563684D46
:101560006F6465203D20004F4646004F4E00686F77
:101570006C644D6F6465203D20004F4646004F4E21
:10158000006175746F46726565203D200066726566
:10159000654D6F6465203D2000206D410063616CE6
:1015A0004D696E5F6D41203D200063757272656EFE
:1015B000744C696D69745F6D41203D2000737465E2
:1015C0007050756C7365203D20006E6F4C6F6164C8
:1015D0005468726573684E203D20006879737465A5
:1015E00072657369734E203D20006B4E5F706572AB
:1015F0005F6D41203D2000746172676574466F72B3
:1016000063654E203D20003D3D3D20E5BD93E589CD
:101610008DE58F82E695B0203D3D3D0028E8A2ABE8
:10162000E68B89290028E697A0E58A9B290028E80F
:10163000A2ABE68EA82900202020202020E5A6824B
:10164000E69E9CE794B5E6B581E698BEE7A4BAE6C7
:10165000ADA3E5B8B8EFBC8CE58F91E9808120435C
:10166000414C3A3CE5AE9EE99985E58A9B3E20E6F1
:101670009DA5E6A087E5AE9A00202020202020E648
:10168000ADA3E794B5E6B5813DE8A2ABE68EA82C04
:1016900020E8B49FE794B5E6B5813DE8A2ABE68BC0
:1016A0008900E68F90E7A4BA3A20E794A8E6898BF0
:1016B000E68EA82FE68B89E888B5E69CBAEFBC8C4D
:1016C000E784B6E5908EE58F91E9808120535441FF
:1016D00054555320E69FA5E79C8BE794B5E6B5816A
:1016E00000204E2000E4BCB0E7AE97E58A9B3A208C
:1016F00000206D4100E794B5E6B5813A2000E4BDD5
:101700008DE7BDAE3A20003D3D3D20E5AE9EE6971B
:10171000B6E78AB6E68081203D3D3D005B4F4B5DDC
:10172000204D6F76696E6720746F20706F736974D7
:10173000696F6E3A20005B4F4B5D206B4E5F7065AA
:10174000725F6D413D005B4F4B5D20636F6E747245
:101750006F6C4469723D005B4F4B5D2044495252AF
:1017600045563D4F46462028E68EA7E588B6E696C4
:10177000B9E59091E9BB98E8AEA429005B4F4B5DB9
:10178000204449525245563D4F4E2028E68EA7E54B
:1017900088B6E696B9E59091E58F8DE8BDAC290055
:1017A0005B4F4B5D206E6F4C6F6164546872657364
:1017B000684E3D005B4F4B5D2043555252454E54A1
:1017C0005F4C494D49543D005B4F4B5D2068797338
:1017D000746572657369734E3D005B4F4B5D20739A
:1017E00074657050756C73653D00202020202020AA
:1017F00020202020202020E784B6E5908EE7AB8BC8
:10180000E58DB3E58F91E980812043414C3A312049
:10181000E688962043414C3A2D310020202020209C
:101820002020E68F90E7A4BA3A20E794A8E6898BB7
:10183000E794A8E58A9BE68EA828E6ADA3E58A9BF7
:1018400029E68896E68B8928E8B49FE58A9B29E8F3
:1018500088B5E69CBA006D41292120E8AFB7E58A3A
:10186000A0E5A4A7E5A496E58A9BE5908EE5868D84
:10187000E6A087E5AE9AE38082005B5741524E5D59
:1018800020E794B5E6B581E5A4AAE5B08F283C0031
:10189000204E00206D41203D20002020202020E50A
:1018A0008DB33A2000202D3E20005B4F4B5D206B16
:1018B0004E5F7065725F6D413A200028E8A2ABE68A
:1018C0008B8929000028E8A2ABE68EA82900206DAC
:1018D0004120005B43414C5D20E6A380E6B58BE5EB
:1018E00088B0E794B5E6B5813A2000202D3E20006F
:1018F0005B4F4B5D20486F6D652072657365743A70
:101900002000206D41005B4F4B5D2063616C4D6991
:101910006E5F6D413D005B4F4B5D207365656B4DA8
:10192000617853746570733D005B4F4B5D20534588
:10193000454B204F4646005B4F4B5D205345454B82
:10194000204F4E2E207365656B4D61785374657022
:10195000733D005B4F4B5D20746F75636852616D22
:1019600070526174654E5065725365633D005B450E
:1019700052525D20544D4F444520E4BB85E694AF60
:10198000E68C812052414D5020E6889620444953F0
:1019900050005B4F4B5D20544D4F44453D444953EF
:1019A000502028E68C89E4BD8DE7A7BBE5A29EE523
:1019B0008A9B29005B4F4B5D20544D4F44453D525F
:1019C000414D502028E68C89E697B6E997B4E7BAEE
:1019D000BFE680A7E5A29EE58A9B29005B4F4B5D91
:1019E00020746F7563684D61784E3D005B4F4B5DB1
:1019F00020746F7563684761696E5F4E5F706572D2
:101A00005F7469636B3D005B484F4C445D204F46FB
:101A100046005B484F4C445D204F4E202D20E59BF7
:101A2000BAE5AE9AE5BD93E5898DE4BD8DE7BDAE1F
:101A3000EFBC8CE585B3E997ADE887AAE58AA8E80D
:101A400087AAE794B12FE8B79FE99A8F2FE5AFBB3C
:101A5000E8A7A6005B4F4B5D204155544F465245C9
:101A6000453D4F4646005B4F4B5D204155544F4628
:101A70005245453D4F4E20284E3D3020E4B894E677
:101A80009CAAE8A7A6E691B8E697B6E887AAE58AF1
:101A9000A820746F727175652D6F666629005B46AC
:101AA0005245455D20E5B7B2E7BB8FE98080E58709
:101AB000BAE887AAE794B1E6A8A1E5BC8F005B4627
:101AC0005245455D20E5B7B2E59CA8E887AAE794B2
:101AD000B1E6A8A1E5BC8F005B4F4B5D20544F558C
:101AE0004348204F4646005B484F4C445D20E88702
:101AF000AAE58AA8E98080E587BA28E8BF9BE58542
:101B0000A5544F55434829005B494E464F5D20532D
:101B100045454B20E887AAE58AA8E5BC80E590AF5B
:101B20002C207365656B4D617853746570733D004F
:101B3000206469723D00207374617274506F733D4C
:101B4000005B4F4B5D20544F554348204F4E2E2095
:101B5000626173654E3D005B484F4C445D20E887F1
:101B6000AAE58AA8E98080E587BA28E6A380E6B5D9
:101B70008BE588B04E213D3029005B4F4B5D2074D2
:101B80006172676574466F7263654E3D0029002778
:101B900020286C656E3D005B5243565D2027002077
:101BA0002D3E20E58A9BE28988E79BAEE6A0872C44
:101BB000E4BF9DE68C8100202D3E20E58A9B3EE718
:101BC0009BAEE6A0872CE58F8DE8BDAC28E9A1BAD5
:101BD000E8B49FE8BDBD2900202D3E20E58A9B3C4E
:101BE000E79BAEE6A0872CE6ADA3E8BDAC28E98074
:101BF00086E8B49FE8BDBD2900202D3E20E697A0D1
:101C0000E58A9B2CE4BF9DE68C81004D4F56494EE2
:101C100047004E454152004E00207C206572723DC7
:101C2000004E207C20004E207C2074617267657419
:101C30003D006D41207C206573744E3D00207C206A
:101C40004355523D0020474F414C3D00504F533DBE
:101C50000000002200250028002B002E0031003457
:101C60000002010000050108010B01000020002313
:101C700000260029002C002F003200000100000384
:101C80000106010901050505050705080808080200
:101C90000202020A0A080804040404010101010105
:101CA0000101010303030303030303040707070CF4
:101CB0000C0C0C0C0C0C0C020202020606060606AA
:101CC0000606060B0B0B0B0B0B0B0B010210202057
:101CD0000808102040102040800201020108040280
:101CE00001010204081020408080402010080402F6
:101CF000018004020180402010080402010804024F
:101D00000101020408102040800102040810204054
:101D10008000000A0B02090C0D0E080703040100E5
:101D200000000000000000000000000000000000B3
:101D30000000000000000000000000000012111070
:101D40000000000000000000000000000000000093
:101D5000000000000000000C002C0112000A001816
:101D6000001C0040007100740075006B0068011DCC
:101D700000360140011E00370141015E01B004A69A
:101D800004CE04D804BA04C404240442042E043843
:101D90000488040604FC036A0460041A041004F2B4
:101DA00003E8037E04740456044C04F303E9035768
:101DB000044D040005F6049C04920400892894084C
:101DC000942095089518A919A910B411B410B5114B
:101DD000B500C801C808D201D208D309D334083EDF
:101DE000084808D007DA07E407A00FAA0FB40FBE0F
:101DF0000FC80FD20F181022102C10361040104AA6
:101E000010007D2111241FBECFEFD1E2DEBFCDBF78
:101E100000E00CBF26E0ACE5B3E001C01D92A531A7
:101E2000B207E1F713E0A0E0B2E0EAE4F2E700E095
:101E30000BBF02C007900D92AC35B107D9F71FE078
:101E4000C2E0DFE000E006C021970109802FFE011B
:101E50000E94B336C130D10780E00807A9F70E947D
:101E60005E220C9423390C940000CF92DF92EF9203
:101E7000FF920F931F93CF93DF932091E9042223C6
:101E800009F401C12091DE04223009F0CBC0209179
:101E9000E5043091E604E091E104F091E204A091C0
:101EA000E304B091E4044091DF04453509F06CC0CF
:101EB000A901455F5F4F460F571FA417B50768F488
:101EC0006AE070E080E090E0DF91CF911F910F9188
:101ED000FF90EF90DF90CF9008958F01075F1F4F25
:101EE000DC01680F791FA617B70709F4C4C0C90140
:101EF00001964D916801C20ED31EE60148838330DE
:101F0000910508F17601D2E0ED1AF108E701588158
:101F10005F3F61F4219658815F3F41F44D3F31F4BA
:101F2000800F911FEC014883C90102964091E304A0
:101F30005091E4049C01255F3F4F4217530708F47A
:101F4000BFCF9C01D0CF8230910561F420852F3F17
:101F500069F721852F3F51F74D3F41F7438783E0D4
:101F600090E0E4CF8130910561F427812F3FF1F6B5
:101F700020852F3FD9F64D3FC9F6428782E090E099
:101F8000D5CF90E080E0D2CFA901465F5F4F460FEA
:101F9000571FA417B50708F493CF8F01085F1F4F91
:101FA000DC01680F791FA617B70709F464C0C901DF
:101FB00001964D916801C20ED31EE601488383301D
:101FC000910508F17601D2E0ED1AF108E701588198
:101FD0005F3F61F4219658815F3F41F44D3F31F4FA
:101FE000800F911FEC014883C90102964091E304E0
:101FF0005091E4049C01265F3F4F4217530708F4B9
:102000005FCF9C01D0CF8230910581F727812F3F90
:1020100069F720852F3F51F74D3F41F7428783E015
:1020200090E0E4CF2130A1F5A091E504B091E60461
:102030009B012A0F3B1FA9014A5F5F4FE091E30418
:10204000F091E404E417F50708F43ACF2E3F310588
:1020500008F036CFFC01CD010596A091E104B091C6
:10206000E204A80FB91F6E0F7F1F6E177F0719F0CC
:1020700081918D93FACF3093E6042093E50460E0DC
:1020800070E0CB0121CF62E170E080E090E01CCFF6
:1020900061E170E080E090E017CF282F30E0909170
:1020A0000E06E92FF0E0EB52FB4F83AD86171706C3
:1020B00059F047E55DE190E0FA01A591B4916A1706
:1020C0007B07B9F490930E062B523B4FF90193AF67
:1020D00081E09F3F69F480E042E450E060E070E01E
:1020E00040930A0550930B0560930C0570930D0502
:1020F00008959F5F4E5F5F4F9535F1F69FEFE4CFF8
:10210000CF92DF92EF92FF92CF93DF93EC016A01BF
:102110007B01E889F98982E08083C11481EED806C9
:10212000E104F104A1F060E079E08DE390E0A70123
:1021300096010E9491362150310941095109569565
:10214000479537952795211580E1380798F0E8895C
:10215000F989108260E874E88EE190E0A7019601A9
:102160000E949136215031094109510956954795F0
:1021700037952795EC85FD853083EE85FF85208397
:10218000188EEC89FD8986E08083EA89FB8980814D
:1021900080618083EA89FB89808188608083EA8905
:1021A000FB89808180688083EA89FB8980818F7DBB
:1021B0008083DF91CF91FF90EF90DF90CF900895D3
:1021C0008150823108F05AC0E82FF0E08827E451AE
:1021D000FF4E8F4F0C94B3360C111011FE100411EA
:1021E00008113E11131119111D11231127112B1163
:1021F000311135113E1139113F1143118091800089
:102200008F77809380000895809180008F7DF9CF33
:1022100080918000877FF5CF84B58F7784BD089546
:1022200084B58F7DFBCF8091B0008F778093B00015
:1022300008958091B0008F7DF9CF809190008F77C5
:10224000809390000895809190008F7DF9CF8091C8
:102250009000877FF5CF8091A0008F778093A000BA
:1022600008958091A0008F7DF9CF8091A000877F95
:10227000F5CF809120018F77809320010895809180
:1022800020018F7DF9CF80912001877FF5CFCF93FB
:10229000DF93282F30E0F901EF5EF24E8491F901CF
:1022A000E553F34ED491F901EB57F34EC491CC238F
:1022B000A1F081110E94E010EC2FF0E0EE0FFF1F63
:1022C000E559F34EA591B491EC91ED2381E090E0B6
:1022D00009F480E0DF91CF91089580E090E0FACF9B
:1022E0001F93CF93DF93282F30E0F901EF5EF24E7A
:1022F0008491F901E553F34ED491F901EB57F34E74
:10230000C491CC23A9F0162F81110E94E010EC2F6C
:10231000F0E0EE0FFF1FEF5AF34EA591B4918FB787
:10232000F894EC91111108C0D095DE23DC938FBF97
:10233000DF91CF911F910895DE2BF8CF3FB7F8942E
:1023400080918F0390919003A0919103B09192039B
:1023500026B5A89B05C02F3F19F00196A11DB11D00
:102360003FBFBA2FA92F982F8827BC01CD01620F3C
:10237000711D811D911D42E0660F771F881F991FF7
:102380004A95D1F708958F929F92AF92BF92CF92C4
:10239000DF92EF92FF924B015C010E949E116B0154
:1023A0007C010E949E116C197D098E099F09683E6F
:1023B000734081059105A8F321E0821A9108A108D4
:1023C000B10888EEC80E83E0D81EE11CF11C811410
:1023D0009104A104B10429F7FF90EF90DF90CF9012
:1023E000BF90AF909F908F9008952FB7F894609111
:1023F0008B0370918C0380918D0390918E032FBF7E
:102400000895AF92BF92CF92DF92EF92FF920F9317
:102410001F93CF93DF936C017B018B01040F151F7A
:10242000EB015E01AE18BF08C017D10759F06991E2
:10243000D601ED91FC910190F081E02DC601199536
:10244000892B79F7C501DF91CF911F910F91FF90F3
:10245000EF90DF90CF90BF90AF900895FC01538D27
:10246000448D252F30E0842F90E0821B930B54176E
:1024700010F0CF96089501970895FC01918D828DFB
:10248000981761F0A28DAE0FBF2FB11D5D968C9194
:10249000928D9F5F9F73928F90E008958FEF9FEFD3
:1024A0000895FC01918D828D981731F0828DE80F8F
:1024B000F11D858D90E008958FEF9FEF0895FC0149
:1024C000918D228D892F90E0805C9F4F821B910916
:1024D0008F739927089588E394E00E945F1221E0AA
:1024E000892B09F420E0822F08958BE993E00E9464
:1024F0005F1221E0892B09F420E0822F0895FC016E
:10250000A48DA80FB92FB11DA35ABF4F2C91848D54
:1025100090E001968F739927848FA689B7892C93B1
:10252000A089B1898C91837080648C93938D848D04
:10253000981306C00288F389E02D80818F7D808307
:102540000895EF92FF920F931F93CF93DF93EC01C7
:1025500081E0888F9B8D8C8D98131AC0E889F9894A
:10256000808185FF15C09FB7F894EE89FF8960834D
:10257000E889F98980818370806480839FBF81E0CE
:1025800090E0DF91CF911F910F91FF90EF90089510
:10259000F62E0B8D10E00F5F1F4F0F731127E02EEB
:1025A0008C8D8E110CC00FB607FCFACFE889F98923
:1025B000808185FFF5CFCE010E947F12F1CFEB8D98
:1025C000EC0FFD2FF11DE35AFF4FF0829FB7F894F7
:1025D0000B8FEA89FB8980818062CFCF0F931F9395
:1025E000CF93DF938C01D0E0C0E0F801EC0FFD1F2A
:1025F0006491662341F08BE993E00E94A112892B3C
:1026000011F02196F2CFCE01DF91CF911F910F9162
:102610000895CF93DF93EC01888D8823B9F0AA89C0
:10262000BB89E889F9898C9185FD03C0808186FD8D
:102630000DC00FB607FCF7CF8C9185FFF2CF8081DC
:1026400085FFEDCFCE010E947F12E9CFDF91CF91C0
:10265000089580E090E0892B29F00E947512811185
:102660000E94000080E090E0892B29F00E946B120C
:1026700081110E94000080E090E0892B49F080E009
:1026800090E0892B29F00E94000081110E94000037
:1026900080E090E0892B49F080E090E0892B29F0E0
:1026A0000E94000081110C9400000895CF93DF93E5
:1026B000EC018B819C81DC01ED91FC910680F7811E
:1026C000E02D199560E08D810E9470118D810E942E
:1026D0004711892BD9F7DF91CF910895FC016781CC
:1026E0007085818592850895EF92FF920F931F93D5
:1026F000CF93DF93EC018B017A018D819E818F3F17
:10270000980741F061E00E9470118D810E9447118D
:102710000197D9F78B819C81DC01ED91FC910280BE
:10272000F381E02DA701B80119958C018D819E815F
:10273000019619F0CE010E945613C801DF91CF9186
:102740001F910F91FF90EF9008950F931F93CF93D8
:10275000DF93EC01162F8D819E818F3F980741F00A
:1027600061E00E9470118D810E9447110197D9F795
:102770008B819C81DC01ED91FC910190F081E02D39
:10278000612F19958C018D819E81019619F0CE01E2
:102790000E945613C801DF91CF911F910F910895A8
:1027A000DC0113968D919C91DC01ED91FC910284EA
:1027B000F385E02D1994DC0113968D919C91DC0139
:1027C000ED91FC910084F185E02D19940F931F93F6
:1027D000CF93DF938C01FC01C381D481E881F9811F
:1027E0000680F781E02DCE011995EA89FB89808169
:1027F0008F7E8083EA89FB898081877F8083EA8955
:10280000FB8980818F778083EA89FB8980818F7D36
:1028100080838A8D898FF8011282DF91CF911F9179
:102820000F910895CF92DF92EF92FF92CF93DF93B3
:10283000EC016A017B01CF82D886E986FA868B811A
:102840009C810E94801060E076E38EE691E0A70113
:1028500096010E9491363C872B878D819E818F3F08
:10286000980739F19927FC01E553F34E24918B57D2
:10287000934EFC018491882399F090E0880F991F72
:10288000FC01ED50F64FA591B491FC01EF5AF34EC7
:10289000859194918FB7F894EC91E22BEC938FBFD4
:1028A00060E08D810E9470118D810E944711892BFB
:1028B000D9F781E08A83DF91CF91FF90EF90DF908D
:1028C000CF900895DC0117964D915D916D917C91AB
:1028D0001A97ED91FC910484F585E02D1994DC01A3
:1028E0004C911196EC911197F0E0E627EE0FFF1F47
:1028F000ED50F84F8591949120E0342F2827392707
:102900002D933C9308952F923F924F925F926F9236
:102910007F928F929F92AF92BF92CF92DF92EF926F
:10292000FF920F931F93CF93DF93E091D504F09123
:10293000D604309709F47AC06115710519F0009733
:1029400009F474C0E281EE2309F491C0F091D70438
:102950006115710519F0009709F467C1EFEFEF0FEA
:10296000E23038F041E150E060E070E090E080E07B
:102970006AC229013A01F093EF049093F304809323
:10298000F2047093F5046093F40481E080930305EE
:102990000E94F5116B017C0103E024E0B22ED1E02E
:1029A00012E035E0232E49E0342E52E0852E912CA2
:1029B00066E0A62E8091D5049091D604DC01ED91BD
:1029C000FC910480F581E02D1995181619060CF07C
:1029D00095C08091D5049091D604DC01ED91FC91D5
:1029E0000680F781E02D1995BC01809103058823AD
:1029F00009F4F4C2C62F8091EF04823009F02CC292
:102A0000E0910105EA3008F035C2F0E08827E45F84
:102A1000FA4E8F4F0C94B3363C158F15A115B51592
:102A2000C215E015FD150D16EC16F41686E090E0C3
:102A3000A0E0B0E080930A0590930B05A0930C05ED
:102A4000B0930D0590E080E0DF91CF911F910F9141
:102A5000FF90EF90DF90CF90BF90AF909F908F90BE
:102A60007F906F905F904F903F902F9008958BE0F4
:102A700090E0A0E0B0E0DECF8091ED04833030F054
:102A80001092ED0410929A0310929903E091ED04D4
:102A900081E08E0F8093ED04F0E0EB52FB4F658BED
:102AA000833061F59091EB048091EC042091EA046D
:102AB0002F3FF1F49F3FE1F48D3FD1F41092F704E2
:102AC0001092F6041092FB041092FA046FEF8AEF52
:102AD00094E00E946F146FEF8AEF94E00E946F14ED
:102AE0006DEF8AEF94E00E946F14D093010506C049
:102AF0009093EA048093EB041093ED040E94F51187
:102B00006C197D098E099F09641575058605970561
:102B100008F450CF43E050E060E070E027CF6D3F15
:102B200049F0609300058AEF94E00E946F141093BF
:102B30000105E4CF109201054CE050E060E070E048
:102B400015CF6D3F10F06E3F49F46093EE048AEFAD
:102B500094E00E946F1400930105D0CF10920105FC
:102B600044E050E060E070E001CFCB019927909302
:102B7000F9048093F8048AEF94E00E946F14B092F5
:102B80000105BCCF362F22278091F8049091F904DB
:102B9000822B932B9093F9048093F8048AEF94E0AE
:102BA0000E946F148091F8049091F904039708F043
:102BB00007C21092010547E050E060E070E0D6CE19
:102BC0006093F0048AEF94E00E946F141092F7046F
:102BD0001092F6041092F1048091F8049091F90497
:102BE000C53529F4049728F3A092010587CF0397F0
:102BF00081F4B8E0B093010581CF6093F1048AEFCE
:102C000094E00E946F148091F8049091F904049765
:102C100081F3E7E0E093010571CF8091F204909198
:102C2000F304009739F41092010546E050E060E0AB
:102C300070E09CCE2091F6043091F7044091F404AA
:102C40005091F5044217530738F4109201054AE0F9
:102C500050E060E070E08ACEA9014F5F5F4F509373
:102C6000F7044093F604820F931FDC016C938AEF04
:102C700094E00E946F144091F004209199033091E8
:102C80009A03A091F804B091F9048091F604909110
:102C9000F704453509F053C084309105C0F16091C7
:102CA000F2047091F304AB01480F591FFA013497F5
:102CB000E081EF3FE1F4FA013397E081EF3FB9F4AF
:102CC00042505109FA0140814D3F89F40197680F44
:102CD000791FFB0140814D3F51F49093F70480939D
:102CE000F6042F5F3F4F30939A032093990380910E
:102CF000F6049091F7042091990330919A03820F82
:102D0000931F04968A179B0709F0F8CE72CF03979A
:102D100071F78091F1048F3F51F7E091F204F09147
:102D2000F30480818F3F19F781818D3F01F7828104
:102D30008D3FE9F69092F7048092F604D2CF84306A
:102D40009105A0F16091F2047091F304AB01480F7A
:102D5000591FFA013497E081EF3FE1F4FA0133970C
:102D6000E081EF3FB9F442505109FA0140814D3FF3
:102D700089F40197680F791FFB0140814D3F51F4A1
:102D80009093F7048093F6042F5F3F4F30939A039C
:102D9000209399038091F6049091F7042091990370
:102DA00030919A03820F931F0396ACCF039791F74C
:102DB0004F3F81F7E091F204F091F30480818F3F5F
:102DC00049F781818D3F31F782818D3F19F79092CC
:102DD000F7048092F604D8CF77277093FD046093B0
:102DE000FC04309201058ACE762F66278091FC0480
:102DF0009091FD04682B792B7093FD046093FC0483
:102E00008091FA049091FB046817790721F440E05F
:102E100050E0BA0104C04EE050E060E070E0109273
:102E20000105411551056105710509F0D0C080917A
:102E3000D704823009F0C7C08091F004853509F0CD
:102E40005DCE8AEE94E040930A0550930B056093A3
:102E50000C0570930D05F8CD813009F083CD80917C
:102E60000105823009F452C040F48823D9F0813042
:102E700009F441C01092010541CE843009F47BC0B1
:102E800008F45CC08530B1F78091FE048095809392
:102E9000FE046093FF044DE050E060E070E0C81372
:102EA000BECFB5CF8091ED04823010F01092ED04CA
:102EB000E091ED0481E08E0F8093ED04F0E0EB52A1
:102EC000FB4F658B823009F019CE8091EB04909115
:102ED000EA049F3F49F48F3F39F41092F7041092AF
:102EE000F6041092FE0401CE8093EA041092EB04E3
:102EF000D093ED0403CE6F3F09F4BCCF6093EE0492
:102F00008091FE04680F6093FE0411CE9B0133276D
:102F10008091F4049091F50402968217930708F4C7
:102F200094CE623008F445CE3093F9042093F8042F
:102F30008091FE04680F6093FE040DCE6093F00450
:102F40006093F1048091FE04680F6093FE04109278
:102F5000F7041092F6048091F8049091F904029716
:102F600079F1B09201058091F2049091F304892BDC
:102F700009F0C4CD58CE8091F2049091F3042091D1
:102F8000F6043091F704A9014F5F5F4F5093F704A7
:102F90004093F604820F931FDC016C938091FE0432
:102FA000680F6093FE048091F8049091F9040297F1
:102FB0002091F6043091F7042817390709F09ECDC7
:102FC000209201059BCD813009F098CD3ACF413058
:102FD00051056105710509F491CDC8CC42E150E07D
:102FE00060E070E0C3CCCF92DF92EF92FF920F933C
:102FF0001F93CF93DF931F921F92CDB7DEB78091BF
:10300000E904882309F4C8C0E091E104F091E204E6
:1030100066E070E080E090E0309709F46FC0809146
:10302000DE04823009F075C01A8219822091E3040F
:103030003091E4048091E5049091E6044091DF042E
:10304000453539F4AC01455F5F4F2417350708F467
:10305000ADC00A962817390708F4A8C08FEF8083FF
:1030600081838DEF828313828091DD04848390912C
:10307000DF048091E504953529F58C5F8583809187
:10308000E5049091E604049696838091DF0487839B
:103090008091E004808709E010E08091E504909140
:1030A000E604080F191F7F016F01C00ED11ECE1458
:1030B000DF04B1F0F70161917F01CE0101960E941A
:1030C0006F14F5CF8D5F85838091E5049091E604C0
:1030D000039696838091DF04878308E010E0DDCFBC
:1030E0008981F60180838A8181830E5F1F4F10934F
:1030F000E8040093E70460E070E0CB010F900F90CC
:10310000DF91CF911F910F91FF90EF90DF90CF90C3
:103110000895813009F045C08091E5049091E6045E
:103120009C012A5F3F4F4091E3045091E404421711
:103130005307E0F18E3F9105C8F58FEF80838183BF
:103140008091DD0482838091E5048E5F838380918A
:10315000DF04853511F48091E00484832091E50437
:103160003091E604A9014B5F5F4FDF01129680E0CA
:10317000BD016E1B7F0B6417750718F49D91890FB5
:10318000F7CFE40FF51F809580832A5F3F4F309380
:10319000E8042093E704AFCF62E170E080E090E0C4
:1031A000ADCF61E170E080E090E0A8CF6AE070E030
:1031B00080E090E0A3CFCF92DF92EF92FF92E09178
:1031C000DB04F091DC04A091D904B091DA04909171
:1031D000D704109709F46DC0923049F4EB30F10533
:1031E00060F483E1C82ED12CE12CF12C54C0913035
:1031F00009F065C0E630F105A0F38093DD049093FB
:10320000DE046093DF041092E004B093E204A09324
:10321000E104F093E404E093E3041092E6041092D6
:10322000E5041092E8041092E70481E08093E90439
:10323000B901CA010E94350F6B017C01C114D10490
:10324000E104F10441F50E94F3176B017C01C11404
:10325000D104E104F104F9F48091D5049091D604ED
:103260004091E7045091E8046091E1047091E20418
:10327000DC01ED91FC910284F385E02D19952091FC
:10328000E7043091E80482179307F9F034E1C32E84
:10329000D12CE12CF12C80E0C0920A05D0920B05D4
:1032A000E0920C05F0920D05FF90EF90DF90CF902B
:1032B000089526E0C22ED12CE12CF12CECCF91E127
:1032C000C92ED12CE12CF12CE6CF81E0E5CF8F92F5
:1032D0009F92AF92BF92CF92DF92EF92FF920F93A5
:1032E0001F93CF93DF9300D01F92CDB7DEB70417A3
:1032F0001507B8F18E3F09F441C09091D704923080
:1033000009F041C069837A834B831C8294E0E09189
:10331000D504F091D6043097F1F14281442309F4A9
:103320003FC057017901292F30E0AE014F5F5F4F59
:1033300062E00E94DB18811138C06FEF7FEFCB0194
:103340000F900F900F900F90DF91CF911F910F91E1
:10335000FF90EF90DF90CF90BF90AF909F908F90B5
:10336000089583E190E0A0E0B0E080930A05909397
:103370000B05A0930C05B0930D05DFCF85E090E021
:10338000A0E0B0E0F2CF913021F469834A8392E06B
:10339000BECF90E0BCCF86E090E0A0E0B0E0E5CF0B
:1033A0008BE090E0A0E0B0E0E0CFA5019601B8018D
:1033B000C7010E948314892B09F4BFCF6091F604E2
:1033C0007091F70490E080E0BBCFCF92DF92EF9254
:1033D000FF920F931F93CF93DF931F921F92CDB74E
:1033E000DEB72FEF3FEF3A83298394E1C92ED12C2A
:1033F000E12CF12C02E010E09E012F5F3F4F42E0F4
:1034000050E070E060E00E94671989819A810F9016
:103410000F90DF91CF911F910F91FF90EF90DF9070
:10342000CF900895CF93DF9300D0CDB7DEB723E0E0
:10343000FE013196DF011D922A95E9F78838B4E044
:103440009B0709F4B2C008F0DAC08A3EF3E09F0798
:1034500008F080C0883E23E0920708F092C08137D0
:103460009105C9F058F58C319105A9F0B8F48C306C
:10347000910589F058F40A9771F060E070E080E0FF
:103480000F900F900F90DF91CF91089582319105A9
:1034900011F0489791F790E080E00DC08E319105D2
:1034A00009F47BC1B8F180349105A9F38B369105FD
:1034B00021F783EB92E02FE637E030C0873351E00D
:1034C000950709F46FC180F48C32B1E09B0719F3C2
:1034D00028F4845791090297F0F2CFCF86339140B8
:1034E00061F683EA92E018C0813421E0920709F482
:1034F00059C138F48034914009F0BFCF8FE892E091
:103500000BC08E35B1E09B0709F44FC1883691405E
:1035100009F0B3CF90E080E02FED36E070E0B4E04A
:103520007B9FA0011124420F531FFA01A491A613FF
:1035300041C13196259134913A832983FA0133961A
:10354000E491EB8340E0009709F03DC169817A8105
:103550008B8196CF8833F4E09F0739F148F58630A8
:1035600054E0950771F080F4823FB3E09B0708F4C4
:1035700084CF843FE3E09E0720F08C3F934009F026
:103580007CCF87E592E00BC18A3124E09207C9F332
:1035900020F480319440A9F370CF8432B4E09B07CB
:1035A00021F08E32944009F068CF87E692E0F7C0B0
:1035B0008835F4E09F0790F4863524E0920758F4AC
:1035C000823454E0950789F308F457CF8C54944023
:1035D000029708F052CF8FE292E0E1C08A36B4E061
:1035E0009B07C9F320F480369440A9F346CF843773
:1035F00024E0920781F38E37944069F33ECF8E3BEF
:10360000AFE09A0709F463C008F066C08115E5E0F1
:103610009E0781F080F58A3B24E0920709F4B1CF40
:10362000B0F48C39A4E09A0729F038F48239944038
:1036300009F023CF8FE192E0B2C0863AF4E09F0711
:1036400009F49FCF803B944009F49BCF16CF8E3C6A
:1036500054E0950709F495CF28F4843C944009F48C
:1036600090CF0BCF883DE4E09E0709F48ACF863FD8
:10367000944001F302CF8E3328E0920751F0B0F46A
:103680008A3DA7E09A0729F048F4803D974009F069
:10369000F4CE90E080E027EE33E040CF843EF7E0C8
:1036A0009F07B9F384339840A1F3E7CE803A5FE0F7
:1036B000950769F020F48834984059F3DECE8A3AB1
:1036C000EFE09E0721F0843B9F4009F0D6CE90E0CA
:1036D00080E027EB32E022CF893129EA9207C9F254
:1036E00060F58C32A0E19A0791F388F4823DEFE017
:1036F0009E0769F320F4883C9F4049F3BECE883191
:1037000050E1950721F38232904109F3B6CE80341F
:10371000B0E19B07E1F220F486339041C1F2ADCED7
:103720008A3420E1920799F28831994A09F0A5CEAE
:1037300090E080E02FED34E0F1CE8115A8EC9A07FF
:10374000B9F398F48131E4EB9E0709F4A2CF20F499
:103750008031944B69F391CE803155EB950741F35D
:103760008131954B09F495CF88CE8830B2ED9B0717
:10377000F9F250F48130F8EC9F0709F48ACF8130D8
:10378000924D09F486CF79CE883053ED950781F2BA
:103790008930934D09F47DCF70CE83E892E02BE120
:1037A00036E0BCCE8FE692E0FACF90E080E02BE9E5
:1037B00035E0B4CE7F5FAF3F09F0B1CEC3CE4F5FEF
:1037C0005F3F09F4C3CEF4E04F9F90011124280F0E
:1037D000391FF90154916513F2CF31968591949177
:1037E0009A838983F9013396E491EB83AFCEFC0190
:1037F00001900020E9F73197AF01481B590BBC013C
:103800008BE993E00C940112CF93DF930E94EE12A8
:10381000EC0180E592E00E94F71B8C0F9D1FDF9169
:10382000CF9108958F929F92AF92BF920F931F9363
:10383000CF93DF93CDB7DEB7A1970FB6F894DEBF75
:103840000FBECDBF19A2423008F44AE08E010F5DD1
:103850001F4F842E912CB12CA12CA50194010E9404
:103860009136E62FB901CA01EA30F4F4E05DD801DF
:10387000EE938D01232B242B252B79F790E080E00C
:10388000109719F0CD010E94F71BA1960FB6F8947E
:10389000DEBF0FBECDBFDF91CF911F910F91BF90C3
:1038A000AF909F908F900895E95CE1CFE091110572
:1038B000E53540F4F0E0EE0FFF1FE95AF24E859136
:1038C000949108958FEF9FEF0895CF92DF92EF923A
:1038D000FF920F931F93CF93DF9300D000D0CDB70B
:1038E000DEB7182F6A017B010E94561C8F3F980794
:1038F00081F481E00E94E519BC0181E00E944D1035
:10390000882309F4E6C00E94561C8F3F980709F4EB
:10391000E0C0C982DA82EB82FC822091D50430912A
:10392000D60430930F0520930E05232B69F480E411
:1039300090E0A0E0B0E080930A0590930B05A0937F
:103940000C05B0930D0506C0612F0E94121A082FB6
:10395000811102C010E07CC0962F9D837E83E09190
:10396000D504F091D604309749F01281112359F013
:103970008091D704823061F462E00EC086E090E06E
:10398000A0E0B0E0D8CF8BE090E0A0E0B0E0D3CFF3
:1039900061E0813009F060E02091DB043091DC04CB
:1039A0004091D9045091DA044115510539F0823023
:1039B00009F05EC02B30310508F061C070E0CE0127
:1039C00005960E94350F602F70E0CE0101960E948F
:1039D000350F0E94F3176B017C01C114D104E1047F
:1039E000F10409F069C08091D5049091D60440910A
:1039F000E7045091E8046091E1047091E204DC0175
:103A0000ED91FC910284F385E02D1995C0920A0591
:103A1000D0920B05E0920C05F0920D05112309F4EC
:103A200099CF24E630E040E050E070E060E090E0C4
:103A300080E00E948314892B09F48CCF8091D704F5
:103A40008230E1F58091F1048F7711E009F082CFA7
:103A5000812F26960FB6F894DEBF0FBECDBFDF9143
:103A6000CF911F910F91FF90EF90DF90CF9008952D
:103A7000813009F0A3CF2630310508F49FCF91E0C3
:103A80009093DD048093DE0483E08093DF04109242
:103A9000E0045093E2044093E1043093E404209363
:103AA000E3041092E6041092E5041092E8041092E8
:103AB000E7049093E90482CF10E0A8CF813009F0A9
:103AC00049CF8091F104882319F2857209F0C0CFA3
:103AD00041CF82E490E0A0E0B0E02DCF40E050E0A4
:103AE000BA0182E20E94651C81E0809382038BEC24
:103AF00091E00C94041CCF92DF92EF92FF920F930F
:103B00001F93CF93DF9300D01F92CDB7DEB7182F4E
:103B10000E94561C8F3F980781F481E00E94E519AE
:103B2000BC0181E00E944D10882309F464C00E940A
:103B3000561C8F3F980709F45EC019821A821B82B7
:103B40001C822091D5043091D60430930F05209328
:103B50000E05232B81F480E490E0A0E0B0E0809398
:103B60000A0590930B05A0930C05B0930D0560E03A
:103B700070E0CB0127C0612F0E94121A8823F1F058
:103B8000482F50E084E6C82ED12CE12CF12C04E023
:103B900010E09E012F5F3F4F81E00E946719613066
:103BA000710581059105D9F48981082E000C990BC6
:103BB000AA0BBB0B89839A83AB83BC8369817A810F
:103BC0008B819C810F900F900F900F90DF91CF9180
:103BD0001F910F91FF90EF90DF90CF90089562308A
:103BE00071058105910551F789819A81092E000C93
:103BF000AA0BBB0BDFCF82E490E0A0E0B0E0AFCF38
:103C0000CF92DF92EF92FF9282E40E947B1D6B01C4
:103C10007C0141E050E060E070E082E20E94651CBF
:103C2000C0928603D0928703E0928803F0928903C2
:103C3000B701A6018AE30E94651C109282038CEFF3
:103C400091E0FF90EF90DF90CF900C94041C4F9286
:103C50005F926F927F928F929F92AF92BF92CF921C
:103C6000DF92EF92FF920F931F93CF936B017C0132
:103C7000742EAC019B010E948C36882399F083E559
:103C800092E0CF911F910F91FF90EF90DF90CF9036
:103C9000BF90AF909F908F907F906F905F904F906C
:103CA0000C94F71B46015701E894B7F82FEF3FEF4C
:103CB0004FE75FE7C501B4010E948C3681110DC04A
:103CC0002FEF3FEF4FE75FE7C501B4010E943834A3
:103CD00018161CF487E592E0D4CF2FEF3FEF4FE7A3
:103CE0005FE4C701B6010E94873618161CF48BE505
:103CF00092E0C7CF2FEF3FEF4FE75FECC701B60170
:103D00000E94383487FDF3CF20E030E0A901C701DD
:103D1000B6010E94383410E000E087FF0AC06DE26F
:103D20008BE993E00E94A1128C01F7FAF094F7F866
:103D3000F094C0E060E070E080E09FE37C1641F02A
:103D400020E030E040E251E40E94E635CF5FF6CF5C
:103D5000A70196010E947A352B013C010E9458363A
:103D60004B015C014AE00E94121C7C01E00EF11E36
:103D7000CC23C1F1C501B4010E943D349B01AC01CB
:103D8000C301B2010E9479354B015C016EE28BE9FF
:103D900093E00E94A112E80EF91EC15018F120E034
:103DA00030E040E251E4C501B4010E949E342B0191
:103DB0003C010E9458364B01B12CA12C4AE0C501B0
:103DC000B4010E94121CE80EF91EC501B4010E9444
:103DD0003D349B01AC01C301B2010E9479354B0116
:103DE0005C01DBCFC701CF911F910F91FF90EF9046
:103DF000DF90CF90BF90AF909F908F907F906F900B
:103E00005F904F900895CF93DF930E94271EEC019F
:103E100080E592E00E94F71B8C0F9D1FDF91CF91F0
:103E20000895CF92DF92EF92FF92CF93DF9397FFA7
:103E30001BC06B017C016DE28BE993E00E94A11233
:103E4000EC0166277727CB016C197D098E099F0944
:103E50004AE00E94121C8C0F9D1FDF91CF91FF90B2
:103E6000EF90DF90CF9008954AE0DF91CF91FF90DF
:103E7000EF90DF90CF900C94121CCF93DF930E94B1
:103E8000111FEC0180E592E00E94F71B8C0F9D1F33
:103E9000DF91CF910895BC01990F880B990B0C9479
:103EA000111FCF93DF930E944B1FEC0180E592E03E
:103EB0000E94F71B8C0F9D1FDF91CF910895FC018D
:103EC00080819181009711F00C9457370895FC017F
:103ED00044815581809197039091980384179507A9
:103EE00080F08091930390919403009751F060814A
:103EF00071816115710529F00E94FB3821E0892B41
:103F000009F020E0822F08950F931F93CF93DF9342
:103F1000EC0188819981009759F02A813B8126170D
:103F2000370730F081E0DF91CF911F910F91089515
:103F30008B016F5F7F4F0E94E037009759F09983A4
:103F400088831B830A832C813D81232B59F7FC0135
:103F50001082E8CF80E0E7CFEF92FF920F931F939C
:103F6000CF93DF93EC017B018A01BA010E94841F89
:103F700028813981811114C02115310519F0C90139
:103F80000E945737198218821D821C821B821A8256
:103F9000CE01DF91CF911F910F91FF90EF90089587
:103FA0001D830C83B701C9010E94F438F1CFFC01D5
:103FB000118210821382128215821482FB010190F9
:103FC0000020E9F73197AF01461B570B0C94AC1F4B
:103FD000CF92DF92EF92FF920F931F93CF93DF93D5
:103FE000EC016B01E0909703F0909803E616F7065A
:103FF00020F48D2D6701E62EF82E62E572E0CE01E9
:104000000E94D71F0091970310919803C016D10604
:1040100040F5E016F10608F48701E0919303F09172
:104020009403E00FF11FF080108260919303709170
:1040300094036C0D7D1D61157105E9F0FB01019084
:104040000020E9F73197AF01461B570BCE010E94C4
:10405000AC1F8091930390919403080F191FF801EE
:10406000F082CE01DF91CF911F910F91FF90EF90E1
:10407000DF90CF90089588819981009711F00E9478
:104080005737198218821D821C821B821A82E1CF47
:10409000FC0180819181009711F00C94793260E0ED
:1040A00070E0CB010895FC0124813581232B39F484
:1040B00021E0FB018081882349F020E007C0808156
:1040C00091810E94EB3821E0892BB9F7822F089566
:1040D0001F920F920FB60F9211242F933F938F933D
:1040E0009F93AF93BF9380918B0390918C03A0918A
:1040F0008D03B0918E0330918A0323E0230F2D3777
:1041000058F50196A11DB11D20938A0380938B035E
:1041100090938C03A0938D03B0938E0380918F03B3
:1041200090919003A0919103B09192030196A11DEB
:10413000B11D80938F0390939003A0939103B0934C
:104140009203BF91AF919F918F913F912F910F90CB
:104150000FBE0F901F90189526E8230F0296A11D01
:10416000B11DD2CF1F920F920FB60F9211240BB632
:104170000F922F933F934F935F936F937F938F9300
:104180009F93AF93BF93EF93FF9388E394E00E94D4
:104190007F12FF91EF91BF91AF919F918F917F918E
:1041A0006F915F914F913F912F910F900BBE0F90A8
:1041B0000FBE0F901F9018951F920F920FB60F927F
:1041C00011240BB60F922F938F939F93EF93FF932E
:1041D000E0914804F09149048081E0914E04F0910F
:1041E0004F0482FD1DC09081809151048F5F8F73B9
:1041F00020915204821741F0E0915104F0E0E85C14
:10420000FB4F958F80935104FF91EF919F918F9178
:104210002F910F900BBE0F900FBE0F901F9018950F
:104220008081F2CF1F920F920FB60F9211240BB61E
:104230000F922F933F934F935F936F937F938F933F
:104240009F93AF93BF93EF93FF938BE993E00E940B
:104250007F12FF91EF91BF91AF919F918F917F91CD
:104260006F915F914F913F912F910F900BBE0F90E7
:104270000FBE0F901F9018951F920F920FB60F92BE
:1042800011240BB60F922F938F939F93EF93FF936D
:10429000E091AB03F091AC038081E091B103F09128
:1042A000B20382FD1DC090818091B4038F5F8F7334
:1042B0002091B503821741F0E091B403F0E0E55698
:1042C000FC4F958F8093B403FF91EF919F918F9155
:1042D0002F910F900BBE0F900FBE0F901F9018954F
:1042E0008081F2CFFC0180819181009711F00C94C4
:1042F0007D3260E070E0CB01089510923B04109293
:104300003A0448EE53E060E070E040933C04509380
:104310003D0460933E0470933F048EE292E09093DC
:104320003904809338042DEC30E030934504209319
:1043300044042CEC30E0309347042093460428ECEE
:1043400030E0309349042093480429EC30E0309366
:104350004B0420934A042AEC30E030934D04209320
:104360004C042EEC30E030934F0420934E04109216
:10437000510410925204109253041092540410925B
:104380009E0310929D0340939F035093A00360935C
:10439000A1037093A20390939C0380939B0385ECED
:1043A00090E09093A8038093A70384EC90E090930F
:1043B000AA038093A90380EC90E09093AC038093D0
:1043C000AB0381EC90E09093AE038093AD0382EC5D
:1043D00090E09093B0038093AF0386EC90E09093CD
:1043E000B2038093B1031092B4031092B5031092FC
:1043F000B6031092B70382E08093D7041092D804DA
:104400001092DC041092DB0410920A0510920B0546
:1044100010920C0510920D0580E094E00E94BB36CE
:104420009093DA048093D904892B49F080E094E0DA
:104430009093DC048093DB0481E08093D804109295
:10444000E9041092030510920E068DE090E00E94A0
:10445000BB36FC01128280E492E09183808388E382
:1044600094E0948383838FEF9FEF9683858380E02E
:1044700091EEA0E0B0E087839087A187B287F093A8
:104480000F05E0930E053097A1F486E090E0A0E0E0
:10449000B0E080930A0590930B05A0930C05B093B0
:1044A0000D054EEF50E06FEF70E080E195E00C9469
:1044B000E438F093D604E093D504F3CFCF93DF93A1
:1044C000CDB7DEB764970FB6F894DEBF0FBECDBF91
:1044D000789484B5826084BD84B5816084BD85B5DF
:1044E000826085BD85B5816085BD80916E008160EB
:1044F00080936E0010928100809181008260809391
:104500008100809181008160809381008091800092
:104510008160809380008091B10084608093B100BD
:104520008091B00081608093B000809191008260A2
:10453000809391008091910081608093910080919F
:1045400090008160809390008091A10082608093B0
:10455000A1008091A10081608093A1008091A000C2
:1045600081608093A000809121018260809321016D
:1045700080912101816080932101809120018160DF
:104580008093200180917A00846080937A008091EA
:104590007A00826080937A0080917A0081608093B3
:1045A0007A0080917A00806880937A001092C1002E
:1045B00040E052EC61E070E08BE993E00E948010F3
:1045C0008091D5049091D60490930F0580930E05A9
:1045D000009709F06AC080E490E0A0E0B0E080932A
:1045E0000A0590930B05A0930C05B0930D0582E08E
:1045F0008093D70462E370E080E090E00E94C311F2
:10460000E091D504F091D604309709F45AC0828124
:10461000882309F463C030E020E050E040E061E02E
:1046200081E00E94DB1881115EC010E088E593E113
:104630000E94EE124AE061E070E080E090E00E94AB
:10464000121C81E39AE0111102C08DE09AE00E94F1
:10465000041C40E050E0BA0182E20E94651C0E9406
:10466000561C8835B4E09B0708F05FC28635E4E04D
:104670009E0798F4843FF3E09F0708F067C0823FED
:1046800023E0920750F4813431E0930731F008F0D1
:1046900058C08733914009F069C045E050E060E0C0
:1046A00070E089E00E94651C61C0DC01ED91FC9125
:1046B0000484F585E02D40E051EE60E070E019954E
:1046C00096CF86E090E0A0E0B0E080930A0590935A
:1046D0000B05A0930C05B0930D05A7CF8BE090E0E0
:1046E000A0E0B0E0F2CF2AE030E040E050E063E04C
:1046F00070E0CE0102960E948314892B09F495CFB5
:104700008091EE04813009F090CF89836091D704C5
:1047100070E090E080E00E943D3420E030E040E82E
:104720005FE30E943834811105C081E00E94E519E1
:104730009B838A836A817B8181E00E944D10182FC0
:1047400075CF885E9340029788F4A7CF8031A4E0AC
:104750009A0709F4A2CF08F0DEC18C3FE3E09E0780
:1047600009F49BCF8630944009F497CF4091000222
:104770005091010270E060E080E10E94651C48EC0D
:1047800050E060E070E081E50E94651C44E650E086
:1047900060E070E080E50E94651C41E050E060E070
:1047A00070E082E20E94651C64E670E080E090E0C8
:1047B0000E94C3111092820387E493E10E94EE12DB
:1047C00089E00E947B1D0E943D1F87E393E10E94C8
:1047D000EE1282E20E947B1D0E943D1F82E40E9435
:1047E0007B1DAB01BC0140935C0350935D03609360
:1047F0005E0370935F034093860350938703609337
:104800008803709389038AE30E94651C81E193E128
:104810000E94041C80E193E10E94041C8BEF92E152
:104820000E94041C84ED92E10E94041C8EEA92E135
:104830000E94041C83E892E10E94041C85E692E138
:104840000E94041C84E392E10E94041C88EE91E122
:104850000E94041C81EB91E10E94041C80EB91E119
:104860000E94041C82E991E10E94041C88E791E106
:104870000E94041C88E591E10E94041C88E391E1F8
:104880000E94041C87E391E10E94041C84E191E1F1
:104890000E94041C86EE90E10E94041C88EB90E1CB
:1048A0000E94041C85E990E10E94041C84E990E1C7
:1048B0000E94041C86E890E10E94041C81E490E1BF
:1048C0000E94041C8CE090E10E94041C8DEC9FE08F
:1048D0000E94041C8CEC9FE00E94041C87EB9FE06C
:1048E0000E94041C8FE79FE00E94041C8FE59FE05C
:1048F0000E94041C8BE19FE00E94041C86EE9EE057
:104900000E94041C83EB9EE00E94041C8CE49EE049
:104910000E94041C8EE09EE00E94041C8BEB9DE034
:104920000E94041C83E89DE00E94041C84E49DE036
:104930000E94041C8AEE9CE00E94041C80E99CE01A
:104940000E94041C86E49CE00E94041C8CE29CE013
:104950000E94041C81E09CE00E94041C8BED9BE003
:104960000E94041C8BEB9BE00E94041C8EE99BE0E0
:104970000E94041C8EE79BE00E94041C8CE39BE0D9
:104980000E94041C83EF9AE00E94041C87EB9AE0CB
:104990000E94041C87E99AE00E94041C8DE79AE0BB
:1049A0000E94041C80E69AE00E94041C8FE59AE0B5
:1049B0000E94041C82E59AE00E94EE1260915C0362
:1049C00070915D0380915E0390915F030E94111FBF
:1049D00085E49AE00E94EE1260912002709121021B
:1049E000809122029091230246E00E94271E87E3D5
:1049F0009AE00E94041C80916003811109C062E565
:104A000072E083E993E00E94D71F81E08093600306
:104A10008BE993E00E945F12892B11F40C94342FE0
:104A20008BE993E00E943D128A3021F08D3011F025
:104A30000C940E2FC0909303D0909403C114D10412
:104A400049F0009197031091980376010115110523
:104A500009F0B5C08091970390919803892B09F1D3
:104A600087E99BE10E94EE124091970350919803D1
:104A700060919303709194038BE993E00E9401127B
:104A80008FE89BE10E94EE1260919703709198036A
:104A900090E080E04AE00E94121C8DE89BE10E94B9
:104AA000041C66EC72E0CE0101960E94D71F6FE5F0
:104AB00072E0CE0107960E94D71FA0909703B09096
:104AC0009803A114B10409F4F8C08B849C84811468
:104AD000910409F4F2C0ED80FE80E818F908009115
:104AE000930310919403E114F10409F0A4C06F81C1
:104AF0007885C8010E9409398C01009709F4DDC04E
:104B000069817A814D815E810E94C9388D819E8143
:104B1000080F191FECCF8A3124E0920709F4BDCDAC
:104B200008F424CE8C5494400ECE863A44E0940788
:104B300009F4B3CDF8F48437A4E09A0709F4ADCDB5
:104B400050F48036E4E09E0709F4A7CD8A369440FD
:104B500009F00CCEA2CD823924E0920709F49DCD54
:104B60008C3934E0930709F498CD8E37944009F0DE
:104B7000FDCD93CD8E3C54E0950709F48ECD78F4AD
:104B80008A3BB4E09B0709F488CD843CE4E09E07AF
:104B900009F483CD803B944009F0E8CD7ECD863F7B
:104BA00024E0920709F479CD811535E0930709F4E3
:104BB00074CD883D944009F0D9CD6FCD7501570172
:104BC0005FEFA51AB50AD7018C91082E000C990B3E
:104BD0000E941734892B91F7015011090C0D1D1DEE
:104BE000F8018081082E000C990B0E941734892B44
:104BF00031F00E151F0518F001501109F1CF0F5FAC
:104C00001F4FA8014E195F095093980340939703D3
:104C1000CE14DF0420F4B701C6010E94C938E09128
:104C20009303F09194038091970390919803E80F78
:104C3000F91F10820FCFF7FC0FC06F8078846501D9
:104C4000C801B3010E940939009709F48CC0880D8E
:104C5000991DCE0CDF1CF5CF68016F817885C801E6
:104C60000E9409395C01009721F14C01801A910AD8
:104C7000A401B801C6010E94C938C80CD91C6981B9
:104C80007A814D815E81C6010E94C9388D819E81E5
:104C9000C80ED91E0B851C850A0D1B1D809197031C
:104CA000909198038E0D9F1D909398038093970386
:104CB000D4CFB801C6010E94F438CE0107960E94F5
:104CC0005F1FCE0101960E945F1F68EB72E0CE016C
:104CD00001960E94D71FCE0101960E94671F182FD0
:104CE000CE0101960E945F1F112309F4D7C062E034
:104CF00070E0CE0101960E94E81FCE0101960E944D
:104D000048206B017C01C0927D03D0927E03E0922B
:104D10007F03F0928003CE0101960E945F1F8AE715
:104D20009BE10E94EE1243E050E0C701B6010E94F1
:104D3000031F20E030E0A90160917D0370917E03A4
:104D400080917F03909180030E943834811195C037
:104D50001092810350E040E062E572E083E993E065
:104D60000E94AC1F55CEAC14BD0409F4A6CF8091AF
:104D70009503909196038C159D0588F4B6016F5F9D
:104D80007F4FC8010E94E037009709F496CF9093B7
:104D9000940380939303D0929603C092950300915D
:104DA0009703109198030150110917FD86CF480110
:104DB0006B847C846114710409F47FCFA090970305
:104DC000B0909803A114B10409F477CFA614B704E6
:104DD00008F473CF0A151B0520F04501F1E08F1A86
:104DE0009108C0909303D09094032F803884C6011B
:104DF0000FEF1FEF2601480C591C4816590678F092
:104E0000B1010E940939009751F09C012C193D090C
:104E10008216930608F4980101968901EECF17FDDA
:104E20004CCF600E711EC601860D971DA501461957
:104E30005709BC018E0D9F1D0E94D23880919703A7
:104E4000909198038E0D9F1D9093980380939703E4
:104E50002091930330919403820F931FDC011C92E5
:104E6000809193039091940369817A814D815E8151
:104E7000800F911F0E94C93896CF809182038111C3
:104E80000E94001E80918303882309F463CF10924F
:104E9000830387E59BE10E94041C5CCF63E672E01C
:104EA00083E993E00E945320811109C069E672E012
:104EB00083E993E00E945320882309F481C081E0B4
:104EC000809381038091820381110E94001E82E4FD
:104ED0000E947B1D6B017C0181E40E947B1DC092BE
:104EE0007103D0927203E0927303F0927403C09046
:104EF0007D03D0907E03E0907F03F0908003C0920A
:104F00007503D0927603E0927703F0927803161639
:104F1000170654F08FEF9FEF672B41F480918403C5
:104F200090918503009711F481E090E090937003D5
:104F300080936F030E94F5116093790370937A0355
:104F400080937B0390937C0381E080936A031092AB
:104F500069031092680381E49BE10E94EE1242E033
:104F6000C701B6010E94271E86E39BE10E94EE1254
:104F70006091710370917203809173039091740337
:104F80000E94111F80E39BE10E94EE1280916F034B
:104F9000909170030E94511F88E09BE10E94EE12E5
:104FA00080910602909107020E94511F8091830315
:104FB000882309F4CFCE1092830387EE9AE16BCF5A
:104FC00062E772E083E993E00E94532081117BC085
:104FD00060E872E083E993E00E945320811178C079
:104FE00069E872E083E993E00E945320811170C068
:104FF00065E972E083E993E00E945320811172C059
:105000006CE772E083E993E00E945320811174C041
:1050100065E872E083E993E00E94532081116CC03F
:1050200061E972E083E993E00E94532081116AC034
:105030006EE972E083E993E00E945320811167C01A
:1050400063EA72E083E993E00E94532081115FC01C
:105050006BEA72E083E993E00E945320811176C0ED
:1050600064EB72E0CE0101960E94D71FCE0101963B
:105070000E94671F182FCE0101960E945F1F112307
:1050800009F469C066E070E0CE0101960E94E81F55
:10509000CE0101960E9448206B017C01C09214024F
:1050A000D0921502E0921602F0921702CE010196FC
:1050B0000E945F1F8CEE99E10E94EE1244E050E0E6
:1050C000C701B6010DC11092810388ED9AE1E3CECC
:1050D00080918203811103C00E946E1D3BCE8EEB36
:1050E0009AE1D9CE80918203882319F00E94001E94
:1050F00031CE8EE99AE1CFCE81E080931F0286E621
:105100009AE1C9CE10921F0284E59AE1C4CE809143
:10511000820381110E94001E10926A031092810383
:1051200082E40E947B1DAB01BC0140938603509337
:10513000870360938803709389038AE30E94651C48
:1051400081E08093830382E19AE1A5CE10928303EC
:1051500087E09AE1A0CE6BEB72E0CE0101960E944F
:10516000D71FCE0101960E94671F182FCE0101960E
:105170000E945F1F1123F9F065E070E0CE010196F7
:105180000E94E81FCE0101960E9448206B017C011D
:10519000C0921002D0921102E0921202F092130219
:1051A000CE0101960E945F1F8CED99E10E94EE12E4
:1051B00042E050E085CF61EC72E0CE0101960E94A2
:1051C000D71FCE0101960E94671F182FCE010196AE
:1051D0000E945F1F1123E1F166E070E0CE010196AD
:1051E0000E94E81F09811A810115110569F0F80173
:1051F0008081882349F0082E000C990B0E94C13849
:10520000D8018D938D01F3CF68EC72E0CE01019649
:105210000E945320882361F081E080931E0284EB7A
:1052200099E10E94041CCE0101960E945F1F92CD5D
:105230006DEC72E0CE0101960E945320882329F084
:1052400010921E0282E999E1ECCF8EE699E1E9CF56
:1052500062ED72E0CE0101960E94D71FCE01019649
:105260000E94671F182FCE0101960E945F1F112315
:10527000D1F166E070E0CE0101960E94E81FCE01F8
:1052800001960E9448206B017C01C0921A02D092C4
:105290001B02E0921C02F0921D02CE0101960E94B8
:1052A0005F1F20E030E0A901C701B6010E94383439
:1052B00087FF08C010921A0210921B0210921C0263
:1052C00010921D0283E599E10E94EE1260911A028C
:1052D00070911B0280911C0290911D0242E050E0EF
:1052E0000E94031F37CD69ED72E083E993E00E94CD
:1052F0005320811140C06EED72E083E993E00E947B
:105300005320811138C066EE72E083E993E00E9479
:105310005320811142C06FEE72E0CE0101960E94CF
:10532000D71FCE0101960E94671F182FCE0101964C
:105330000E945F1F1123B1F168E070E0CE01019679
:105340000E94E81FCE0101960E9472218B0170938A
:10535000070260930602CE0101960E945F1F10169D
:10536000110634F0E1E0F0E0F0930702E09306026A
:1053700086E199E109C081E080936A031092690394
:105380001092680387E399E10E94EE128091060271
:10539000909107020E94511FDDCC10926A0389E2AE
:1053A00099E179CD68EF72E0CE0101960E94D71F96
:1053B000CE0101960E94671F182FCE0101960E9410
:1053C0005F1F112349F167E070E0CE0101960E9452
:1053D000E81FCE0101960E9472218B017093190281
:1053E00060931802CE0101960E945F1F10161106ED
:1053F00034F021E030E0309319022093180286E067
:1054000099E10E94EE1280911802909119020E9477
:105410004B1F82E099E13FCD60E073E083E993E0C8
:105420000E9453208823B9F1C0905C03D0905D03A3
:10543000E0905E03F0905F0382E40E947B1DAB016D
:10544000BC0140935C0350935D0360935E037093D3
:105450005F034093860350938703609388037093A0
:1054600089038AE30E94651C80EF98E10E94EE1296
:10547000C701B6010E94111F8BEE98E10E94EE1247
:1054800060915C0370915D0380915E0390915F0376
:105490000E943D1F5FCC65E073E0CE0101960E9443
:1054A000D71FCE0101960E94671F182FCE010196CB
:1054B0000E945F1F112309F498C064E070E0CE01E0
:1054C00001960E94E81FCE0101960E9448202B0100
:1054D0003C01CE0101960E945F1F81E40E947B1D6A
:1054E0006B018B0183ED98E10E94EE12C6010E94D0
:1054F0004B1F8EEC98E10E94EE1285EC98E11C1493
:105500001D043CF08BEB98E1C114D10411F484EC40
:1055100098E10E94041CA0901802B0901902C601E4
:1055200017FF04C0882799278C199D098A159B05A8
:105530000CF449C08090200290902102A090220299
:10554000B0902302B6010D2C000C880B990B0E9421
:105550003F349B01AC01C301B2010E94E635609368
:1055600020027093210280932202909323028AEA00
:1055700098E10E94EE1246E0C501B4010E94271E88
:1055800085EA98E10E94EE1260912002709121025A
:10559000809122029091230246E050E00E94031F76
:1055A0008AE998E10E94EE12C6010E944B1F83E92E
:1055B00098E10E94EE1242E0C301B2010E94271E50
:1055C00080E998E168CC8AE798E10E94EE12C50173
:1055D0000E944B1F86E598E10E94041C8BE198E134
:1055E0000E94041C8AEE97E156CC6AE073E0CE017B
:1055F00001960E94D71FCE0101960E94671F182FA7
:10560000CE0101960E945F1F1123C9F065E070E092
:10561000CE0101960E94E81FCE0101960E947221E0
:105620006B017093030260930202CE0101960E9407
:105630005F1F8AED97E10E94EE12C601ABCE60E1DA
:1056400073E0CE0101960E94D71FCE0101960E9401
:10565000671F182FCE0101960E945F1F1123D9F0FA
:1056600064E070E0CE0101960E94E81FCE01019631
:105670000E9448206B017C01C0920802D09209026E
:10568000E0920A02F0920B02CE0101960E945F1F87
:1056900088EC97E18BCD65E173E0CE0101960E9425
:1056A000D71FCE0101960E94671F182FCE010196C9
:1056B0000E945F1F112369F165E070E0CE01019641
:1056C0000E94E81FCE0101960E9472216B017C01AD
:1056D0007093010260930002CE0101960E945F1F49
:1056E000B701A6016627772780E10E94651C84EB3D
:1056F00097E10E94EE12609100027091010290E029
:1057000080E04AE00E94121C80E592E00E94F71BB4
:1057100021CB6BE173E0CE0101960E94D71FCE0131
:1057200001960E94671F182FCE0101960E945F1FED
:105730001123C1F164E070E0CE0101960E94E81FE0
:10574000CE0101960E9448206B017C01C0920C02A0
:10575000D0920D02E0920E02F0920F02CE0101965D
:105760000E945F1F20E030E0A901C701B6010E943E
:10577000383487FF08C010920C0210920D0210926C
:105780000E0210920F0280EA97E10E94EE126091E1
:105790000C0270910D0280910E0290910F0243E075
:1057A00050E09ECD60E273E083E993E00E945320D5
:1057B000811140C067E273E083E993E00E945320C7
:1057C000811138C061E373E083E993E00E945320C4
:1057D000811139C06CE373E0CE0101960E94D71F9E
:1057E000CE0101960E94671F182FCE0101960E94DC
:1057F0005F1F112389F164E070E0CE0101960E94E1
:10580000E81FCE0101960E9472216B01CE01019624
:105810000E945F1F01E010E0D7FE02C00FEF1FEFF4
:10582000109305020093040286E497E10E94EE12B1
:10583000C801B0CD4FEF5FEF5093050240930402D3
:105840008CE797E128CB81E090E09093050280936C
:10585000040287E597E11FCB61E473E0CE01019676
:105860000E94D71FCE0101960E94671F182FCE01FC
:1058700001960E945F1F1123F9F063E070E0CE01F2
:1058800001960E94E81FCE0101960E9448206B01FC
:105890007C01C0922002D0922102E0922202F0927A
:1058A0002302CE0101960E945F1F86E397E10E94CA
:1058B000EE1246E050E004CC65E473E0CE010196C0
:1058C0000E94D71FCE0101960E94671F182FCE019C
:1058D00001960E945F1F112321F164E070E0CE0168
:1058E00001960E94E81FCE0101960E9472216B0171
:1058F0007C01CE0101960E945F1FB701A6018AE3D9
:105900000E94651CC0928603D0928703E0928803B0
:10591000F09289038CE197E10E94EE12C701B60173
:10592000B7CD6AE473E083E993E00E9453208823B3
:1059300009F466C082E40E947B1D2B013C0181E4D6
:105940000E947B1D4B01072E000C880B990B0E94B7
:105950003F34209120023091210240912202509147
:1059600023020E949E346B017C0187E097E10E9434
:10597000041C8EEF96E10E94EE12C301B2010E9458
:105980003D1F85EF96E10E94EE12C4010E944B1F5D
:1059900081EF96E10E94041C85EE96E10E94EE12D2
:1059A00042E0C701B6010E94271E81EE96E10E94E7
:1059B000EE1220E030E0A901C701B6010E9487364F
:1059C0001816C4F020E030E0A901C701B6010E941A
:1059D000383487FF12C08CE196E10E94041C82EAF1
:1059E00096E10E94041C89E796E10E94041C87E36B
:1059F00096E151CA8EE296E1F0CF85E296E1EDCFD5
:105A000061E573E083E993E00E945320882309F461
:105A100069C187E096E10E94041C87EF95E10E942E
:105A2000EE1260917D0370917E0380917F039091CF
:105A3000800343E050E00E94031F8AEE95E10E943C
:105A4000EE126091200270912102809122029091C9
:105A5000230246E050E00E94031F8BED95E10E9477
:105A6000EE12609108027091090280910A029091F1
:105A70000B0242E050E00E94031F8AEC95E10E9475
:105A8000EE1260910C0270910D0280910E029091C5
:105A90000F0243E050E00E94031F8DEB95E10E944E
:105AA000EE1280910202909103020E94511F8AEA35
:105AB00095E10E94EE12609100027091010290E067
:105AC00080E04AE00E94121C80E592E00E94F71BF1
:105AD0008DE995E10E94EE128091180290911902D1
